:020000040800F2
:10000000000002201D3F0008D93B0008DB3B000830
:10001000DD3B0008DF3B0008E13B0008000000007A
:10002000000000000000000000000000911E000819
:10003000E33B000800000000211F0008851F0008A6
:100040006D3F00086D3F00086D3F00086D3F0008E0
:100050006D3F00086D3F00086D3F00086D3F0008D0
:100060006D3F00086D3F00086D3F00086D3F0008C0
:100070006D3F00086D3F00086D3F00086D3F0008B0
:10008000E53B0008F13B00086D3F00086D3F0008AC
:100090006D3F00086D3F00086D3F00086D3F000890
:1000A0006D3F0008FD3B00086D3F00086D3F0008F4
:1000B0006D3F00086D3F00086D3F00086D3F000870
:1000C0006D3F00086D3F00086D3F00086D3F000860
:1000D0006D3F00086D3F0008093C00086D3F0008B7
:1000E0006D3F00086D3F00086D3F00086D3F000840
:1000F0006D3F00086D3F00086D3F00086D3F000830
:100100006D3F00086D3F00086D3F00086D3F00081F
:100110006D3F00086D3F00086D3F00086D3F00080F
:100120006D3F00086D3F00086D3F00086D3F0008FF
:100130006D3F000800000000000000006D3F000857
:100140006D3F00086D3F00086D3F00086D3F0008DF
:100150006D3F00086D3F00086D3F00086D3F0008CF
:100160006D3F00086D3F00086D3F00086D3F0008BF
:100170006D3F00086D3F0008000000000000000017
:080180006D3F00086D3F00080F
:1001900010B5054C237833B9044B13B10448AFF3C1
:1001A00000800123237010BD7000002000000000BB
:1001B0006448000808B5034B1BB103490348AFF37B
:1001C000008008BD000000007400002064480008A2
:1001D000034613F8012B002AFBD1181A0138704787
:1001E00001F0FF01102A2BDB10F0070F08D010F8E8
:1001F000013B013A8B422DD010F0070F42B3F6D1EC
:10020000F0B441EA012141EA014122F007047FF004
:1002100000070023F0E80256083C85EA010586EA5B
:10022000010685FA47F5A3FA87F586FA47F6A5FA97
:1002300087F68EB9EED1F0BC01F0FF0102F00702A3
:1002400032B110F8013B013A83EA010313B1F8D14E
:100250000020704701387047002D06BF354603382F
:10026000073815F0010F07D1013015F4807F02BF68
:10027000013015F4C03F0130F0BC0138704700BFB9
:1002800053B94AB9002908BF00281CBF4FF0FF31FD
:100290004FF0FF3000F07AB9ADF1080C6DE904CEF3
:1002A00000F006F8DDF804E0DDE9022304B0704751
:1002B0002DE9F0478C460D460446089E002B51D18F
:1002C0008A4217466DD9B2FA82FEBEF1000F0BD0FA
:1002D000CEF1200C01FA0EF520FA0CFC02FA0EF712
:1002E0004CEA050C00FA0EF44FEA174A250CBCFB49
:1002F000FAF81FFA87F90AFB18CC45EA0C4508FB07
:1003000009F3AB420AD9ED1908F1FF3280F02381DD
:10031000AB4240F22081A8F102083D44ED1AA4B29C
:10032000B5FBFAF00AFB105544EA054400FB09F955
:10033000A14509D9E41900F1FF3380F00A81A145F4
:1003400040F2078102383C44A4EB090440EA08402B
:100350000021002E61D024FA0EF400233460736073
:10036000BDE8F0878B4207D9002E54D0002186E8E3
:1003700021000846BDE8F087B3FA83F1002940F078
:100380008E80AB4202D3824200F2FA80841A65EB7F
:1003900003050120AC46002E3FD086E81010BDE8D2
:1003A000F08712B90127B7FBF2F7B7FA87FEBEF163
:1003B000000F34D1EB1B3A0C1FFA87FC0121B3FB71
:1003C000F2F8250C02FB183345EA03450CFB08F351
:1003D000AB4207D9ED1908F1FF3002D2AB4200F26F
:1003E000D1808046ED1AA3B2B5FBF2F002FB1055A6
:1003F00043EA05440CFB00FCA44507D9E41900F1CD
:10040000FF3302D2A44500F2B8801846A4EB0C04D6
:1004100040EA08409DE731463046BDE8F087CEF11E
:10042000200405FA0EF307FA0EF720FA04F83A0C46
:1004300025FA04F448EA0308B4FBF2F14FEA184540
:1004400002FB11441FFA87FC45EA044501FB0CF34B
:10045000AB4200FA0EF409D9ED1901F1FF3080F03A
:100460008A80AB4240F2878002393D44EB1A1FFA82
:1004700088F5B3FBF2F002FB103345EA034500FBBD
:100480000CF3AB4207D9ED1900F1FF386FD2AB4244
:100490006DD902383D44EB1A40EA01418FE7C1F1C2
:1004A000200722FA07F88B4005FA01F448EA030313
:1004B00020FA07FE4FEA134CFD404EEA040EB5FB4E
:1004C000FCF94FEA1E440CFB19551FFA83F844EA65
:1004D000054509FB08F4AC4202FA01F200FA01FA00
:1004E00008D9ED1809F1FF3043D2AC4241D9A9F146
:1004F00002091D442D1B1FFA8EFEB5FBFCF00CFB00
:1005000010554EEA054400FB08F8A04507D9E41849
:1005100000F1FF3529D2A04527D902381C4440EA12
:100520000940A4EB0804A0FB02894C45C6464D4691
:1005300015D312D056B1BAEB0E0364EB050404FADE
:1005400007F7CB401F43CC40376074600021BDE803
:10055000F0871846F8E69046E0E6C245EAD2B8EBE6
:10056000020E69EB03050138E4E72846D7E7404669
:1005700091E78146BEE7014678E702383C4445E70B
:10058000084608E7A8F102083D442BE7704700BF82
:1005900008B50B4B1A6842F400721A601A6842F4EC
:1005A00080621A601A6842F480721A60032000F0B8
:1005B0001BF8002003F0D4FA03F034FA002008BD41
:1005C000003C0240034A044B11681B780B44136043
:1005D000704700BF9C49002000000020014B1868B4
:1005E000704700BF9C490020074AD36823F4E063AA
:1005F0001B041B0C43F0BF63000243F4003300F400
:10060000E0600343D360704700ED00E0174B30B566
:10061000DC68C4F30224C4F10703251D042B28BFA2
:100620000423062D4FF0010505FA03F303F1FF3310
:100630008CBF033C00241940A14005FA04F4013C9E
:100640002240002842EA01024FEA0212ADBF00F147
:10065000604000F00F00064B00F56140B5BFD2B21C
:10066000D2B21A5480F8002330BD00BF00ED00E084
:1006700014ED00E0002808DB4209012300F01F0010
:1006800003FA00F0014B43F82200704700E100E05C
:100690000368DAB223F47F7323F003031821103ABE
:1006A000B2FBF1F20449032A88BF0433895C8365F5
:1006B000C165806D704700BF7C48000870B5044676
:1006C000FFF78CFF0546002C71D0002384F83430EE
:1006D0002268022384F83530136823F00103136085
:1006E00021680B68D8073CD40B68324D6268A0695A
:1006F0001D40A3681343E2681343226913436269F0
:100700001343E26903431343226A1343626A042AD0
:1007100043EA050301BF266BE56A35432B430B60B3
:100720004B69042A23F0070343EA02030BD1A26AB0
:10073000E56A13433DB1F8B9012A2DD001D3022A4D
:1007400001D1EA012BD44B612046FFF7A1FFE26DF6
:100750003F239340836000200123606584F8353097
:1007600070BDFFF73BFF401B0528B9D92023636507
:10077000032084F8350070BDB0F5005F13D1032A63
:10078000E1D801A050F822F09F07000843070008B5
:100790009F07000899070008B5F1C07FD3D1402317
:1007A00063650120E5E7022AF9D9032AC8E7012099
:1007B00070BD00BF3F8010F070B590F83440012C40
:1007C00036D0012480F8344090F83540866D012CF5
:1007D0004FF000054FF0020428D180F8354004683E
:1007E0004565256825F48025256063608368402B76
:1007F0000EBFA260A160E260C26D08BFE1603F234E
:100800009340B360236843F016032360636943F0A9
:1008100080036361036C1BB1236843F0080323600A
:10082000236843F001032360002070BD80F834503A
:10083000022070BD90F83530022B03D08023436531
:10084000012070470268052380F83530136823F0D3
:100850000103136000207047F7B5002301935A4B42
:10086000856D1F68C36D2E6808229A4016420446A3
:100870000CD001680868400708D5086820F004001B
:100880000860AA60626D42F00102626501229A402E
:10089000164208D021684969090641BFAA60626D05
:1008A00042F00202626504229A40164208D0216892
:1008B0000968880741BFAA60626D42F00402626560
:1008C00010229A40164210D02368196809070CD5E7
:1008D000AA601A68500335D51B68190301D4236C2C
:1008E00000E0A36C0BB120469847E16D20228A40BE
:1008F000164238D023681868C60634D5AA6094F822
:100900003520052A1A6825D122F016021A605A6984
:1009100022F080025A61226C0AB9A26C1AB11A68DC
:1009200022F008021A603F238B40AB60002384F85A
:100930003430012384F83530236D0BB120469847BD
:1009400003B0F0BD1A68D2055EBF1A6822F0080233
:100950001A60C4E7500328D51B68190332D4636CAE
:100960000BB120469847636D002BE9D0636DDA0721
:1009700019D50523226884F83530136823F0010364
:1009800013604FF41653B7FBF3F7019B01339F42FB
:10099000019302D31368DB07F7D4002384F83430C3
:1009A000012384F83530E36CC7E71A6812F48072CB
:1009B00008D1196821F010011960012384F834204E
:1009C00084F83530E36BCBE7080000202DE9F04FC9
:1009D00085B00B68DFF8AC81684ADFF8AC91019311
:1009E00000234FF0010E019C0EFA03FE0EEA0406EE
:1009F000B64540F0AE804C6824F01007022F16D1A7
:100A00004FEAD30A00EB8A0A03F0070BDAF820500A
:100A10004FEA8B0B4FF00F0C0CFA0BFC25EA0C0C79
:100A20000D6905FA0BF545EA0C05CAF820504FEAA6
:100A3000430A0325D0F800B005FA0AF5ED4304F0A7
:100A4000030C0BEA050B0CFA0AFC013F4CEA0B0CF9
:100A5000012FC0F800C011D8876807EA050BCF68DE
:100A600007FA0AFC4CEA0B078760476827EA0E0E74
:100A7000C4F300179F4047EA0E074760C7683D4030
:100A80008F6807FA0AF73D43C560E50061D54FF06E
:100A9000000BCDF80CB0D8F84470394D47F48047BE
:100AA000C8F84470D8F8447007F480470397039F50
:100AB00023F0030707F1804707F59C3703F0030C89
:100AC000D7F808A04FEA8C0C4FF00F0E0EFA0CFE70
:100AD000A8422AEA0E0E43D005F58065A84241D00F
:100AE00005F58065A8423FD005F58065A8423DD058
:100AF00005F58065A8423BD048453BD005F500652B
:100B0000A84239D005F58065A84214BF08250725FD
:100B100005FA0CF545EA0E05BD601568F74314F4B7
:100B2000803F0CBF3D4035431560556814F4003FCD
:100B30000CBF3D4035435560956814F4801F0CBFD1
:100B40003D4035439560D568A40254BF3D403543D0
:100B5000D5600133102B7FF444AF05B0BDE8F08FB2
:100B60005D46D5E70125D3E70225D1E70325CFE789
:100B70000425CDE70525CBE70625C9E7003C014064
:100B80000000024000380240001402400AB18161B6
:100B900070470904FBE700002DE9F341044618B94A
:100BA000012002B0BDE8F0810368DD0710D423689E
:100BB000980758D423681A0700F19A8023685B07C6
:100BC00000F1B880A269002A40F019810020E8E70E
:100BD000A64B9A6802F00C02042A07D09A6802F029
:100BE0000C02082A0AD15B68590207D59F4B1B6883
:100BF0009A03DCD56368002BD9D1D1E763689B4D9C
:100C0000B3F5803F11D12B6843F480332B60FFF79D
:100C1000E5FC964D06462B689B03C8D4FFF7DEFC27
:100C2000801B6428F7D90320BBE7B3F5A02F04D1BC
:100C30002B6843F480232B60E5E72A6822F4803296
:100C40002A602A6822F480222A60002BDFD1FFF775
:100C5000C5FC06462B689F03A9D5FFF7BFFC801B88
:100C60006428F7D9DFE7814B9A6812F00C0F07D0A0
:100C70009A6802F00C02082A11D15B685E020ED459
:100C80007A4B1A68950702D5E268012A88D11A685A
:100C9000216922F0F80242EAC1021A608AE7E2689A
:100CA000734BB2B101221A60FFF798FC6F4D0646F4
:100CB0002B68980707D52B68226923F0F80343EACD
:100CC000C2032B6076E7FFF789FC801B0228EFD96F
:100CD000A9E71A60FFF782FC644D06462B68990766
:100CE0007FF568AFFFF77AFC801B0228F6D99AE7F8
:100CF0006269604B7AB101221A60FFF76FFC5B4DAD
:100D000006466B6F9F073FF559AFFFF767FC801BE7
:100D10000228F6D987E71A60FFF760FC534D0646B4
:100D20006B6F98077FF54AAFFFF758FC801B0228CE
:100D3000F6D978E74D4B1A6C12F0805228D1019207
:100D40001A6C42F080521A641B6C03F080530193BA
:100D5000019B0126484D2B68D9051BD5A368434D3F
:100D6000012B27D12B6F43F001032B67FFF736FCD4
:100D70003E4D074641F288382B6F9B0739D5002E30
:100D80003FF420AF394A136C23F08053136419E702
:100D90000026DFE72B6843F480732B60FFF71EFC0F
:100DA00007462B68DA05D9D4FFF718FCC01B0228C8
:100DB000F7D938E7052B04D12B6F43F004032B67D9
:100DC000D0E72A6F22F001022A672A6F22F004027C
:100DD0002A67002BCAD1FFF701FC41F28838074689
:100DE0002B6F9807CBD5FFF7F9FBC01B4045F7D910
:100DF00019E7FFF7F3FBC01B4045BDD913E71B4DB7
:100E0000AB6803F00C03082B3FF4CAAE1B4E002363
:100E1000022A336034D1FFF7E1FB07462B689901C2
:100E20001ED4226AE3691343626A43EA8213E26AC8
:100E300043EA0263A26A0D4C5208013A43EA0243B4
:100E40006B6001233360FFF7C9FB054623689A01F5
:100E50003FF5BCAEFFF7C2FB401B0228F6D9E2E625
:100E6000FFF7BCFBC01B0228D8D9DCE600380240E3
:100E700000004742800E4742007000406000474239
:100E8000FFF7ACFB04462B689B017FF59FAEFFF795
:100E9000A5FB001B0228F6D9C5E600BF134908B51B
:100EA0008B6803F00C03042B03D0082B03D01048ED
:100EB00008BD104808BD4A684B68496813F48003B0
:100EC00014BF0C480A48C1F3881118BF002302F070
:100ED0003F02A1FB0001FFF7D3F9044B5B68C3F3AA
:100EE000014301335B00B0FBF3F008BD0038024062
:100EF0000024F40040787D012DE9F0410D460446C0
:100F000010B90120BDE8F081444B1A6802F00F02CD
:100F10008A4228D321688F072DD4C80740D43F4B7D
:100F20001A6802F00F02954266D3226851076CD40A
:100F3000130707D53A4A2169936823F4604343EACB
:100F4000C1039360FFF7AAFF354B364A9B68C3F392
:100F50000313D35CD840344B1860002002F000FE2D
:100F60000020BDE8F081CAB21A701B6803F00F03BD
:100F70009942C6D1CEE72A4B11F0040F1EBF9A68E2
:100F800042F4E0529A600E0742BF9A6842F460420F
:100F90009A609A68A06822F0F00202439A60BCE767
:100FA00062681F4B012A1DD11B6813F4003FA8D0B3
:100FB0001B4EB36823F003031343B360FFF70EFB2C
:100FC00041F288380746B368626803F00C03B3EB5C
:100FD000820FA4D0FFF702FBC01B4045F3D90320CA
:100FE000BDE8F081911E01291B6802D813F0007F33
:100FF000DDE713F0020FDAE7EAB21A701B6803F0BC
:101000000F039D427FF47DAF8FE70549E0688B6851
:1010100023F4E05303438B608AE700BF003C0240A7
:1010200000380240B248000808000020044B054A7E
:101030009B68C3F38223D35C034A1068D84070478F
:1010400000380240C248000808000020044B054A4E
:101050009B68C3F34233D35C034A1068D84070479F
:1010600000380240C2480008080000200F23036037
:101070000B4B9A6802F0030242609A6802F0F00299
:1010800082609A6802F4E052C2609B68DB0803F455
:10109000E0530361034B1B6803F00F030B607047C1
:1010A00000380240003C024070470368DA6842F0B2
:1010B0000102DA609A6802F00702062A1EBF1A6867
:1010C00042F001021A600020704770477047704775
:1010D000704703681A69910710B504460ED5DA689F
:1010E00092070BD56FF002021A619B6901229B07E0
:1010F000027777D0FFF7EAFF0023237723681A6986
:10110000500710D5DA6851070DD56FF004021A6147
:101110009B69022213F4407F2277204668D0FFF7B4
:10112000D5FF0023237723681A6912070FD5DA68E1
:1011300010070CD56FF008021A61DB6904229907C9
:10114000227720465AD0FFF7C1FF00232377236878
:101150001A69D20610D5DA68D0060DD56FF01002E4
:101160001A61DB69082213F4407F227720464BD0B6
:10117000FFF7ACFF0023237723681A69D10708D54E
:10118000DA68D20705D56FF001021A61204602F035
:101190003DFC23681A69100608D5DA68110605D5E2
:1011A0006FF080021A61204600F0B7F823681A69D0
:1011B000520608D5DA68500605D56FF040021A616C
:1011C0002046FFF785FF23681A69910622D5DA6861
:1011D00092061FD56FF0200220461A61BDE810402C
:1011E00000F09AB8FFF771FF2046FFF770FF83E722
:1011F000FFF76BFF2046FFF76AFF92E7FFF765FFF7
:101200002046FFF764FFA0E7FFF75FFF2046FFF7E8
:101210005EFFAFE710BD0000304A0368904212D075
:10122000B0F1804F0FD0A2F57C4290420BD002F576
:101230008062904207D002F58062904203D002F5AE
:101240007842904219D14A6823F070031343234A2D
:10125000904229D0B0F1804F26D0A2F57C42904236
:1012600022D002F5806290421ED002F58062904248
:101270001AD002F57842904216D0194A904213D003
:1012800002F5806290420FD002F5806290420BD04E
:10129000A2F59832904207D002F58062904203D0C6
:1012A00002F58062904203D1CA6823F4407313436D
:1012B0004A6923F08003134303608B68C3620B68A1
:1012C0008362064B984203D003F58063984201D1B4
:1012D0000B69036301234361704700BF00000140B5
:1012E0000040014010B50446A0B190F83D3003F035
:1012F000FF021BB980F83C20FFF7D6FE022384F8DA
:101300003D302068211DFFF787FF012384F83D3021
:10131000002010BD012010BD704770470368DA68D7
:1013200022F49072DA605A6922F001025A61202395
:1013300080F83A30704700002DE9F0470668C2682F
:101340003369C16923F4405313433361044683680E
:101350000069F2680343606922F41642034322F0F5
:101360000C020B431343F3607369A26923F44073C7
:101370001343B1F5004F73617A4B7CD19E4203D089
:1013800003F580639E4244D1FFF760FE192505FBFB
:1013900000F360684FF064094000B3FBF0F3B3FB67
:1013A000F9F34FEA0318FFF751FE636868435B00E7
:1013B000B0FBF3F7FFF74AFE636868435B00B0FBDE
:1013C000F3F3B3FBF9F309FB1373DB003233B3FB25
:1013D000F9F35B0003F4F877FFF738FE62686843BF
:1013E0005200B0FBF2FAFFF731FE636868435B001E
:1013F000B0FBF3F3B3FBF9F309FB13A3DB003233C8
:10140000B3FBF9F303F0070343443B44B360BDE887
:10141000F087FFF70BFE192505FB00F360684FF01E
:1014200064094000B3FBF0F3B3FBF9F34FEA031890
:10143000FFF7FCFD636868435B00B0FBF3F7FFF761
:10144000F5FD636868435B00B0FBF3F3B3FBF9F3AE
:1014500009FB1373DB003233B3FBF9F35B0003F4D6
:10146000F877FFF7E3FD626868435200B0FBF2FAD9
:10147000FFF7DCFDB9E79E4202D03B4B9E4240D1D4
:10148000FFF7E4FD676819254FF0640905FB00F3D9
:10149000BF00B3FBF7F3B3FBF9F31F01FFF7D6FD72
:1014A000636868439B00B0FBF3F8FFF7CFFD636808
:1014B00068439B00B0FBF3F3B3FBF9F309FB138321
:1014C0001B013233B3FBF9F303F0F008FFF7BEFD65
:1014D000626868439200B0FBF2FAFFF7B7FD6368F9
:1014E00068439B00B0FBF3F3B3FBF9F309FB13A3D1
:1014F0001B013233B3FBF9F303F00F0343EA080394
:1015000083E7FFF793FD676819254FF0640905FB32
:1015100000F3BF00B3FBF7F3B3FBF9F31F01FFF7D1
:1015200085FD636868439B00B0FBF3F8FFF77EFD21
:10153000636868439B00B0FBF3F3B3FBF9F309FB6B
:1015400013831B013233B3FBF9F303F0F008FFF709
:101550006DFD626868439200B0FBF2FAFFF766FD2A
:10156000BDE700BF001001400014014010B5044663
:1015700040B390F8393003F0FF021BB980F83820EF
:1015800002F072FA2268242384F83930D36823F4F5
:101590000053D3602046FFF7CFFE23681A6922F478
:1015A00090421A615A6922F02A025A61DA6842F4BA
:1015B0000052DA6000202023E06384F8393084F898
:1015C0003A3010BD012010BD38B50446134694F8DA
:1015D0003920202A2AD139B333B394F83820012A8C
:1015E00024D0012284F83820206BE38400252122B6
:1015F000E56384F839200E4AA3842162C2630D4A50
:1016000002640D4AC264226805650432FFF7D4F80B
:1016100023686FF040021A605A6984F8385042F02B
:1016200080025A61284638BD012038BD022038BDED
:10163000CF160008FD160008C9170008134690F8D9
:101640003A20202A73B5054638D1002934D0002B22
:1016500032D090F83820012A30D00122002480F8BE
:1016600038202222C4638162838580F83A20406B4F
:10167000134AC2632E68134A0264134AC2640465A3
:101680000A46311DFFF798F82B6801941A680192F9
:101690005A680192019ADA6885F8384042F48072FB
:1016A000DA605A6942F001025A615A6942F0400216
:1016B0005A61204602B070BD0120FBE70220F9E725
:1016C00007170008BD170008C9170008704708B5BC
:1016D0000368826B1B6813F480730AD1D384136888
:1016E0005A6922F080025A61DA6842F04002DA60F8
:1016F00008BD1046FFF7EAFF08BD704708B5806BCC
:10170000FFF7FBFF08BD08B50368826B1B6813F485
:10171000807310D1D3851368D96821F48071D960A2
:10172000596921F001015961596921F0400159615C
:10173000202382F83A30104602F0ACFA08BD90F847
:101740003A30222B10B536D1836801690268B3F5AF
:10175000805F836A23D15268E9B9C2F3080223F893
:10176000022B8362C48D013CA4B2C4858CB903688A
:10177000DA6822F02002DA60DA6822F48072DA6035
:101780005A6922F001025A61202380F83A3002F0AF
:1017900081FA002010BDD2B223F8012BE1E721B974
:1017A000591C526881621A70DCE75268591C8162C8
:1017B00002F07F02F7E7022010BD704708B5806B8A
:1017C000FFF7FBFF08BD7047816B08B50B685A69CE
:1017D00091F8390021280AD1120608D50022CA84BE
:1017E000DA6822F0C002DA60202281F839205B69D1
:1017F00091F83A20222A06D15B0604D50023CB8536
:101800000846FFF78BFDCB6B43F01003CB63084614
:10181000FFF7D9FF08BD000003681A68D96870B5E2
:10182000160704465D6907D196065AD58D0658D528
:10183000BDE87040FFF783BF15F0010502D111F438
:10184000907F4ED0D30705D5CE0542BFE36B43F062
:101850000103E363500704D51DB1E36B43F00203BA
:10186000E363930704D51DB1E36B43F00403E36323
:10187000160704D51DB1E36B43F00803E363E36B84
:10188000002B66D0950604D5880602D52046FFF7C2
:1018900056FF23685D69E26B1107204602D415F0FC
:1018A00040051AD0FFF73AFD23685A69520610D551
:1018B0005A69606B22F040025A6150B1254B0365B2
:1018C000FEF7B8FF002844D0606BBDE87040036DA0
:1018D00018472046FFF777FF70BDFFF774FFE563F9
:1018E00070BD160627D50D0625D594F83920212A76
:1018F0002FD1A268B2F5805F226A17D11188C1F397
:1019000008015960216979B902322262E28C013AF8
:1019100092B2E284EAB9DA6822F08002DA60DA6828
:1019200042F04002DA6070BD0132EEE7511C2162E4
:1019300012785A60EAE750060BD54A0609D5DA68EC
:1019400022F04002DA60202384F839302046FFF785
:10195000BDFE70BD5919000808B5806B0023C38512
:10196000C384FFF730FF08BDEFF3058313B16FF0B9
:1019700005007047EFF31083002BF8D1074B186870
:10198000022806D1EFF31183002BF0D14FF0FF3086
:1019900070470028FAD101221A607047E80200203F
:1019A00010B5EFF3058313B16FF0050010BDEFF331
:1019B0001084002CF8D1094B1A68022A06D1EFF3E3
:1019C0001183002BF0D14FF0FF3010BD012AFAD166
:1019D00002221A6001F02AFA204610BDE802002017
:1019E000F0B587B0144600220B460592EFF305824E
:1019F00072BBEFF310825ABB284A1268022A02D146
:101A0000EFF3118222BB18B300228DF81320002CB3
:101A10003CD0216809B90DF11301A569002D08BF5B
:101A200018256A1E372A2F4635D86268D20732D465
:101A3000666986B1B208D4F808E0D4F80CC0BEF1EB
:101A4000000F0AD0BCF15B0F02D9246904B1AEB912
:101A5000059807B0F0BD8022EDE7BCF1000FF7D18B
:101A60002469002CF4D105AC0194009792B201F0E6
:101A7000B0F901281CBF00230593E9E7CDF808E081
:101A80000194009501F06EF90590E1E71827802296
:101A90000DF11301E7E70020DBE700BFE8020020BB
:101AA00008B5EFF3058313B16FF0050008BDEFF340
:101AB0001083002BF8D1064B1B68022B03D1EFF3E8
:101AC0001183002BF0D110B101F006FB002008BDFE
:101AD000E802002070B50446EFF3058313B100253A
:101AE000284670BDEFF31083002BF8D11A4A126814
:101AF000022A03D1EFF31182002AF0D104B1636806
:101B000003F001061B07EAD4B4B1A168E36889B108
:101B10004F2BE4D9DEB1042000F00DFE054600286D
:101B2000DDD02168284600F08BFF002ED8D045F08C
:101B30000105D5E7002BD2D15EB1042000F0F0FD05
:101B400005460028CBD0002CEBD12146EAE7012046
:101B5000E2E70120F2E700BFE802002073B5144677
:101B6000EFF305831BB10025284602B070BDEFF3EB
:101B70001083002BF7D11C4B1B68022B03D1EFF312
:101B80001183002BEFD10028EDD00029EBD004B356
:101B9000A368E268ABB14F2AE5D92269002AE2D0F6
:101BA000666901FB00F5AE42DDD30025009500F02B
:101BB00083FC05460028D6D02168284600F040FF67
:101BC000D2E7002ACFD12369002BCCD16369002B47
:101BD000C9D1002200F0BDFC05460028C3D0002C6E
:101BE000EAD12146E9E700BFE802002013B51C4610
:101BF000EFF3058323B1E8B96FF0030002B010BD25
:101C0000EFF31083002BF6D1184B1B68022B03D186
:101C1000EFF31183002BEED10028EDD00029EBD09B
:101C20000023224600F0BCFC012811D0DCB96FF083
:101C30000200E3E70029DFD0002CDDD102AA234611
:101C400042F8044D00F085FD0128F0D1019B0BB94D
:101C50000020D3E7064B4FF080521A60BFF34F8F3E
:101C6000BFF36F8FF4E76FF00100C7E7E8020020D1
:101C700004ED00E013B51C46EFF3058323B1E0B992
:101C80006FF0030002B010BDEFF31083002BF6D10C
:101C9000174B1B68022B03D1EFF31183002BEED1FE
:101CA0000028EDD00029EBD0224600F0B5FD012838
:101CB00010D0D4B96FF00200E4E70029E0D0002C86
:101CC000DED102AA42F8044D00F04AFE0128F1D10B
:101CD000019B0BB90020D5E7064B4FF080521A60EC
:101CE000BFF34F8FBFF36F8FF4E76FF00100C9E7C9
:101CF000E802002004ED00E00346A0B1EFF3058206
:101D000012B1184600F08FBEEFF31082002AF8D10E
:101D1000054A1268022A03D1EFF31182002AF0D19A
:101D2000184600F06DBE7047E8020020034B0360C8
:101D3000034B0B6080231360704700BF8C020020B0
:101D40008C000020034B0360034B0B604FF4807347
:101D500013607047EC060020EC02002000F108033D
:101D600043604FF0FF32C360036100238260036071
:101D7000704700230361704743684B609A688A602C
:101D80009A68516099600368086101330360704785
:101D90000A68531C30B50AD103695A684A609160D9
:101DA0008B605960036808610133036030BD00F146
:101DB00008035C682568AA42EFD32346F9E7416827
:101DC000826803698A60826851605968884208BFE6
:101DD0005A60002202611A68013A1A601868704756
:101DE00082B0002301930D4B1B68013308D04FF0E4
:101DF000500383F31188BFF36F8FBFF34F8FFEE75C
:101E00004FF0500383F31188BFF36F8FBFF34F8FF1
:101E1000019B002BFCD002B0704700BF04000020E3
:101E200008480068006880F308884FF0000080F3DD
:101E3000148862B661B6BFF34F8FBFF36F8F00DFB8
:101E400000BF000008ED00E0DFF80C00016841F47D
:101E5000700101607047000088ED00E04FF0807372
:101E600040F8043C074B40F80C3C21F001016FF0B6
:101E7000020340F8081C40F8202C40F8243C443869
:101E8000704700BFE11D00080000000000000000D6
:101E9000074B19680868B0E8F04F80F30988BFF372
:101EA0006F8F4FF0000080F311887047AFF3008010
:101EB000684300204FF0500383F31188BFF36F8F06
:101EC000BFF34F8F0A4A13680133012B13600DD102
:101ED000084B1B6813F0FF0F08D04FF0500383F33B
:101EE0001188BFF36F8FBFF34F8FFEE7704700BFBE
:101EF0000400002004ED00E0084A136843B94FF0E5
:101F0000500383F31188BFF36F8FBFF34F8FFEE74A
:101F1000013B13600BB983F3118870470400002064
:101F2000EFF30980BFF36F8F154B1A681EF0100F87
:101F300008BF20ED108A20E9F04F10602DE909005C
:101F40004FF0500080F31188BFF34F8FBFF36F8FB6
:101F500001F0E6F84FF0000080F3118809BC196821
:101F60000868B0E8F04F1EF0100F08BFB0EC108A00
:101F700080F30988BFF36F8F704700BFAFF3008015
:101F80006843002008B54FF0500383F31188BFF376
:101F90006F8FBFF34F8F00F09BFF18B1034B4FF0D3
:101FA00080521A60002383F3118808BD04ED00E01D
:101FB000084A0949002313600B60084B4FF47A71FB
:101FC0001B68B3FBF1F30649013B0B600723136069
:101FD000704700BF10E000E018E000E008000020BB
:101FE00014E000E0394B3A4A13B51968914208D120
:101FF0004FF0500383F31188BFF36F8FBFF34F8F00
:10200000FEE71A68334B9A4208D14FF0500383F32E
:102010001188BFF36F8FBFF34F8FFEE72E4B1A78F7
:10202000D2B20192FF221A701B782C4ADBB28DF8D3
:1020300003309DF8033003F050031370284B072240
:102040001A6000219DF80300000602F1FF340DD450
:1020500001B11A601A68032A11D04FF0500383F3BC
:102060001188BFF36F8FBFF34F8FFEE79DF80320FA
:102070005200D2B28DF8032001212246E2E712027B
:1020800002F4E0621A60019B134ADBB21370154B35
:102090001A6842F470021A601A6842F070421A60BC
:1020A000FFF786FF104B00241C60FFF7CDFE0F4AA0
:1020B000136843F040431360FFF7B2FE01F030F8BD
:1020C000FFF78EFE204602B010BD00BF00ED00E01D
:1020D00071C20F4170C20F4100E400E048070020C8
:1020E0004C07002020ED00E00400002034EF00E069
:1020F000EFF305830F2B0ED9104A9B5C104A127820
:102100009A4208D94FF0500383F31188BFF36F8FC1
:10211000BFF34F8FFEE70B4B0B4A1B68126803F4AB
:10212000E063934208D94FF0500383F31188BFF363
:102130006F8FBFF34F8FFEE7704700BFF0E300E003
:10214000480700200CED00E04C07002010B50F4BB5
:102150001A68824218D35C681919884201BF416825
:10216000184609195960446801198A4207D108497B
:1021700009688A421FBF5168126809194160984274
:10218000026018BF186010BD1346E1E760430020ED
:10219000500700202DE9F041044600F08BFE3E4937
:1021A0003E4D0B680BBB3E4A56071FBFD01D20F0AB
:1021B000070002F570531B1A14BF02464FF4705308
:1021C0001344083B23F00703364E0B600020706079
:1021D000326058601860981A1360334B5060186072
:1021E000324B18604FF000432B602F68274216D106
:1021F000002C41D004F1080358071CBF23F007034B
:10220000083363B1294A1668B342904607D8254A75
:1022100015686868834204D809688D4207D1002494
:102220002AE02C68002CF7D02A462546F1E72968D9
:1022300014681160C21A102A0FD9E818410708D093
:102240004FF0500383F31188BFF36F8FBFF34F8FAD
:10225000FEE742606B60FFF779FF13496B6808681F
:10226000F61A1F4386424FF00003C8F8006038BFDB
:102270000E6008346F602B6000F0BAFE630708D070
:102280004FF0500383F31188BFF36F8FBFF34F8F6D
:10229000FEE72046BDE8F0815007002054430020AF
:1022A00054070020604300205C4300205843002076
:1022B00010B5044670B3184A50F8043C1268134233
:1022C00008D14FF0500383F31188BFF36F8FBFF332
:1022D0004F8FFEE750F8081C41B14FF0500383F3D5
:1022E0001188BFF36F8FBFF34F8FFEE723EA02031E
:1022F00040F8043C00F0DEFD084A54F8043C116844
:10230000A4F108000B441360FFF720FFBDE8104064
:1023100000F06EBE10BD00BF5443002058430020A3
:1023200010B50446FFF7C6FDA46BFFF7E5FDB4FA50
:1023300084F0400910BD70B51546026C866B0446EA
:1023400042B905689DB9406801F008F8656001363A
:10235000A66370BD6DB9806801F034FEA368226C7D
:1023600013446268A360934201D32368A3600020F2
:10237000EDE7C06801F026FE236CE26821685B424D
:102380001A448A42E2603EBF62689B18E360022DF5
:10239000EDD10EB1013EEAE73046D8E7034610B46E
:1023A0001A6C084662B1D9685C681144A142D960D0
:1023B00024BF1968D960D9685DF8044B01F002BEEA
:1023C0005DF8044B704770B50446FFF773FD94F851
:1023D000455004F124066DB2002D14DCFF2384F86F
:1023E0004530FFF789FDFFF765FD94F8445004F18F
:1023F00010066DB2002D12DCFF2384F84430BDE8D6
:102400007040FFF779BD636A002BE7D0304600F0DB
:1024100007FF08B100F08CFF013D6DB2DCE72369D6
:10242000002BE9D0304600F0FBFE08B100F080FF41
:10243000013D6DB2DEE7000038B50D46044640B9F7
:102440004FF0500383F31188BFF36F8FBFF34F8FAB
:10245000FEE7FFF72FFD206CE36B2268A260434389
:10246000D1181B1A13446160E3600021FF23A163AC
:1024700084F8443084F8453095B9236963B104F198
:10248000100000F0CDFE38B10A4B4FF080521A60B8
:10249000BFF34F8FBFF36F8FFFF72EFD012038BDC5
:1024A00004F11000FFF75AFC04F12400FFF756FC7A
:1024B000F2E700BF04ED00E013B51C4640B94FF051
:1024C000500383F31188BFF36F8FBFF34F8FFEE785
:1024D00043B94FF0500383F31188BFF36F8FBFF3FD
:1024E0004F8FFEE74AB1D9B94FF0500383F31188FB
:1024F000BFF36F8FBFF34F8FFEE789B14FF05003EB
:1025000083F31188BFF36F8FBFF34F8FFEE74FF058
:10251000500383F31188BFF36F8FBFF34F8FFEE734
:1025200050230193019B502BF1D10123002908BFB7
:10253000224684F84630E063216422601946204632
:10254000FFF77AFF9DF8103084F84C30204602B037
:1025500010BDF8B50D461746064640B94FF050037A
:1025600083F31188BFF36F8FBFF34F8FFEE74843AC
:102570005030FFF70FFE044660B1002380F846306C
:1025800055B92060E663256401212046FFF754FF1A
:1025900084F84C702046F8BD00F150030360F1E769
:1025A0002DE9FF47894601921F46044640B94FF086
:1025B000500383F31188BFF36F8FBFF34F8FFEE794
:1025C000002940F08880036C002B00F084804FF0DD
:1025D000500383F31188BFF36F8FBFF34F8FFEE774
:1025E000019E002E00F082804FF0500383F311888B
:1025F000BFF36F8FBFF34F8FFEE7019D1DB9FFF74C
:102600007BFC002058E016B902A800F049FEFFF755
:1026100073FC00F04FFCFFF74DFC94F84430FF2BA7
:1026200008BF84F8448094F84530FF2B08BF84F835
:102630004580FFF761FC01A902A800F03DFE0028DB
:1026400043D1FFF737FCA66BE56BFFF755FCAE42B5
:1026500035D1019904F1100000F0AAFD2046FFF7E2
:10266000B2FE00F0C5FC38B94FF08053CAF8003014
:10267000BFF34F8FBFF36F8F0126FFF71BFCA26BD9
:10268000E36B9A4201D3022FB7D13A46494620461E
:10269000FFF751FE636A1BB104F1240000F0C0FD96
:1026A00038B1194B4FF080521A60BFF34F8FBFF310
:1026B0006F8FFFF721FC012004B0BDE8F0872046B2
:1026C000FFF781FE00F094FCD6E72046FFF77BFE83
:1026D00000F08EFC95E7022F02D1E36B012B0AD1AB
:1026E00000F02CFE00283FF47BAF00264FF00008DE
:1026F000DFF814A0C1E74FF0500383F31188BFF354
:102700006F8FBFF34F8FFEE704ED00E038B1002379
:1027100043600360C3601A461946FFF741BF704724
:1027200010B5024600210120FFF713FF0446FFF712
:10273000EDFF204610BD13B500220B460090114658
:102740000120FFF7B9FE0446FFF7E0FF204602B084
:1027500010BD2DE9F843884691461F46044640B90E
:102760004FF0500383F31188BFF36F8FBFF34F8F88
:10277000FEE709BB036CFBB14FF0500383F31188F4
:10278000BFF36F8FBFF34F8FFEE704F1240000F01B
:1027900047FD002834D0B9F1000F31D00120C9F82D
:1027A000000086F31188BDE8F88301356DB284F826
:1027B000455025E00020F4E7022F02D1E36B012B06
:1027C00020D1FFF795FCEFF311864FF0500383F310
:1027D0001188BFF36F8FBFF34F8FA26BE36B9A42E9
:1027E00001D3022FE6D194F845503A466DB24146E6
:1027F0002046FFF7A0FD6B1CD7D1636A002BC4D124
:102800000120CEE74FF0500383F31188BFF36F8FA1
:10281000BFF34F8FFEE700002DE9F04385B08846F7
:102820000192044640B94FF0500383F31188BFF37F
:102830006F8FBFF34F8FFEE7002940F08680036C57
:10284000002B00F082804FF0500383F31188BFF318
:102850006F8FBFF34F8FFEE7019E002E7AD04FF0AF
:10286000500383F31188BFF36F8FBFF34F8FFEE7E1
:10287000019D1DB9FFF740FB002052E016B902A8E8
:1028800000F00EFDFFF738FB00F014FBFFF712FB22
:1028900094F84430FF2B08BF84F8447094F8453016
:1028A000FF2B08BF84F84570FFF726FB01A902A89B
:1028B00000F002FD00283DD12046FFF731FD98B31E
:1028C000019904F1240000F073FC2046FFF77BFD22
:1028D00000F08EFB38B94FF08053C9F80030BFF3D9
:1028E0004F8FBFF36F8F0126FFF7E4FAA56B002D22
:1028F000BED041462046013DFFF750FDA563236948
:1029000063B104F1100000F08BFC38B1134B4FF0B1
:1029100080521A60BFF34F8FBFF36F8FFFF7ECFA4F
:10292000012005B0BDE8F0832046FFF74CFD00F024
:102930005FFBD8E72046FFF746FD00F059FB204635
:10294000FFF7EEFC0028CED096E700F0F7FC002859
:1029500082D000260027DFF80490C5E704ED00E0F0
:102960002DE9F84389469046054640B94FF050039B
:1029700083F31188BFF36F8FBFF34F8FFEE771BBF7
:10298000036C63B34FF0500383F31188BFF36F8F71
:10299000BFF34F8FFEE795F84460494676B228466C
:1029A000FFF7FCFC013C731CAC6313D12B690BB922
:1029B00001200BE005F1100000F032FC0028F7D0F8
:1029C000B8F1000FF4D00120C8F8000087F3118897
:1029D000BDE8F883013676B285F84460E8E7FFF792
:1029E00087FBEFF311874FF0500383F31188BFF398
:1029F0006F8FBFF34F8FAC6B002CCCD12046E5E737
:102A000010B5044640B94FF0500383F31188BFF36B
:102A10006F8FBFF34F8FFEE7FFF74CFAA46BFFF702
:102A20006BFA204610BD40B94FF0500383F3118874
:102A3000BFF36F8FBFF34F8FFEE7806B70470000CF
:102A400030B5074A002352F8335002EBC3041DB9D6
:102A500042F83310606030BD0133082BF3D130BD34
:102A6000A049002070B504460D461646FFF722FA2D
:102A700094F84430FF2B04BF002384F8443094F8CA
:102A80004530FF2B04BF002384F84530FFF734FAAC
:102A9000A36B2BB93246294604F1240000F0A2FBB7
:102AA0002046BDE87040FFF78EBC00002DE9F041E4
:102AB0000446FFF7FFF92E4B2E4D1A682E4F0132B8
:102AC0001A602E68002E47D12C601B68012B1DD187
:102AD000B8191436FFF742F9B6F58C6FF8D1DFF864
:102AE000C480264E4046FFF739F93046FFF736F9E5
:102AF0002348FFF733F92348FFF730F92248FFF75F
:102B00002DF9224BC3F80080214B1E60214A136827
:102B100001331360204A63641168E36A14208B4216
:102B200000FB037004F1040188BF1360FFF724F970
:102B3000FFF7E2F9194B1B6863B12B68DA6AE36AA5
:102B40009A4207D2164B4FF080521A60BFF34F8F54
:102B5000BFF36F8FBDE8F081104B1B68002BD5D100
:102B60002B68DA6AE36A9A4298BF2C60CEE700BF0E
:102B7000D447002068430020744300200048002010
:102B80001C48002048480020344800206C430020A6
:102B900070430020E4470020E84700203048002030
:102BA00004ED00E0EC470020064A13681968064B64
:102BB00019B94FF0FF321A6070471268D268D268B4
:102BC0005268F8E76C430020144800202DE9F047D4
:102BD0000A9C099F96000D4632468046A521206B2F
:102BE000994601F0FAF9236B043E1E4426F00706CD
:102BF0006B1E04F134020F35597802F8011B13F8EB
:102C0000011F09B1AB42F7D1089D372D28BF3725E9
:102C10004FF0000AE562E564201D84F843A0C4F883
:102C200050A0FFF7A6F8C5F1380504F11800FFF72A
:102C3000A0F8C4F854A02461A561646284F858A087
:102C40004A4641463046FFF709F9206007B13C602B
:102C5000BDE8F08710B590F8593004463BB9006BD9
:102C6000FFF726FB2046BDE81040FFF721BB012BF4
:102C7000F9D0022B08D04FF0500383F31188BFF333
:102C80006F8FBFF34F8FFEE710BD000080B5DFF8F8
:102C90005C80124F124C134D236863B9124B1B68B2
:102CA000012BF8D94FF08053C8F80030BFF34F8F95
:102CB000BFF36F8FEEE7FFF7FDF8FB68DE68301DAE
:102CC000FFF77DF82B68013B2B602368013B2360F5
:102CD000FFF712F93046FFF7BDFFDDE74848002057
:102CE000D8470020D44700207443002004ED00E0C2
:102CF000F8B5164B164D1E680446286804300F467A
:102D0000FFF75DF8631C2B4607D137B129681148DE
:102D10000431BDE8F840FFF72FB834441A68A642E2
:102D2000546007D90C4A10681968BDE8F8400431AE
:102D3000FFF72EB8094A106819680431FFF728F820
:102D4000074B1A68944238BF1C60F8BD5C480020ED
:102D50006843002034480020704300206C4300206A
:102D60001448002070B586B00B9D0C9C45B94FF0FF
:102D7000500383F31188BFF36F8FBFF34F8FFEE7CC
:102D800044B94FF0500383F31188BFF36F8FBFF343
:102D90004F8FFEE75C260496049E5C2E08D04FF011
:102DA000500383F31188BFF36F8FBFF34F8FFEE79C
:102DB0002563022584F8595005AD01950A9D0294BA
:102DC0000095FFF703FF2046FFF770FE059806B059
:102DD00070BD2DE9F043074685B090008846164641
:102DE0009946FFF7D7F90546E8B15C20FFF7D2F91D
:102DF0000446A8B1002380F859300D9B0563019368
:102E00000C9B0290009332464B4641463846FFF7F2
:102E1000DDFE2046FFF74AFE012005B0BDE8F08345
:102E20002846FFF745FA4FF0FF30F6E710B588B0B7
:102E3000002407AA06A905A805940694FEF776FFC4
:102E4000059B0293069B019300942346079A14491D
:102E50001448FFF787FFA0B908B010BD4FF050032A
:102E600083F31188BFF36F8FBFF34F8F0E4B4FF07B
:102E7000FF321A600D4B18600D4B1C60FFF7B2F863
:102E8000EAE700F0FFFA0128E8D00130E4D14FF082
:102E9000500383F31188BFF36F8FBFF34F8FFEE7AB
:102EA000844800088D2C0008144800203048002079
:102EB0005C480020024A136801331360704700BF6A
:102EC000E0470020014B1868704700BF5C480020B5
:102ED0002DE9F84F3B4B1B68002B51D13A4B1C6836
:102EE00001341C60BCB9394B1A68126842B14FF00A
:102EF000500383F31188BFF36F8FBFF34F8FFEE74B
:102F0000334A1968106818601160324A1368013337
:102F10001360FFF749FE304D304F2B689C424FF055
:102F2000000B3CD3DFF8A480DFF8C090D8F8002075
:102F3000126862BB4FF0FF322A6030E006F1040AEB
:102F40005046FEF73CFFB16A19B106F11800FEF7D2
:102F500036FFF06AD9F80010214B88424FF0140276
:102F600088BFC9F80000514602FB0030FEF704FF9D
:102F70003868F16AC26A914228BF4FF0010BD5E769
:102F8000184A1368013313604FF0000B11E0D8F8B2
:102F90000020D268D66871688C42CFD229603A6826
:102FA0000F4BD16A14224A439A58022A28BF4FF085
:102FB000010B0D4A1268002A18BF4FF0010B58464A
:102FC000BDE8F88FE04700205C4800206C430020FB
:102FD0007043002018480020144800206843002057
:102FE00074430020DC47002060480020E8470020B0
:102FF0002DE9F0412F4C236843B94FF0500383F380
:103000001188BFF36F8FBFF34F8FFEE7FEF752FFBC
:103010002368013B236024682CB10024FEF76CFF79
:103020002046BDE8F081244B1B68002BF5D0234ED1
:10303000234FDFF8A0803368E3B90CB1FFF7B4FD8C
:10304000204D2C6844B1204E0127FFF741FF00B10D
:103050003760013CF9D12C601B4B1B68002BDCD086
:103060001A4B4FF080521A60BFF34F8FBFF36F8F30
:103070000124D3E7F368DC68251D04F11800FEF78E
:103080009EFE2846FEF79BFEE36A3A6814209342B0
:1030900000FB0380294688BF3B60FEF76DFE0C4BAA
:1030A000E26A1B68DB6A9A4222BF074B01221A6060
:1030B000C1E700BFE0470020D44700201C480020A3
:1030C000E8470020DC4700206048002004ED00E0D5
:1030D000684300207443002008B540B90E4B4FF000
:1030E00080521A60BFF34F8FBFF36F8F08BD0B4B39
:1030F000196841B14FF0500383F31188BFF36F8F0C
:10310000BFF34F8FFEE7FFF7D5FEFFF7F1FDFFF7A7
:103110006FFF0028E2D008BD04ED00E0E04700208A
:10312000F8B51E4B1A681E4B12B101221A60F8BD89
:103130001C4C1A602268236812681B6B9A4204D8E0
:1031400020682168343100F049FB174E174A336874
:103150004FF0140E17460EFB03F15018555885B169
:10316000456808316D6845600A44954204BF6A6845
:103170004260142202FB03725268D26822603360FC
:10318000F8BD43B94FF0500383F31188BFF36F8F3D
:10319000BFF34F8FFEE7013BDDE700BFE0470020B4
:1031A0006048002068430020E84700207443002066
:1031B00010B50C4640B94FF0500383F31188BFF3AC
:1031C0006F8FBFF34F8FFEE7054B19681831FEF77D
:1031D000DFFD20460121BDE81040FFF789BD00BF9B
:1031E0006843002038B50D46144640B94FF05003EF
:1031F00083F31188BFF36F8FBFF34F8FFEE7074B49
:1032000019681831FEF7B8FD002C21460CBF28467E
:103210004FF0FF30BDE83840FFF76ABD684300203B
:1032200038B5C368DC6844B94FF0500383F31188A4
:10323000BFF36F8FBFF34F8FFEE704F118052846E9
:10324000FEF7BDFD104B1B68DBB9251D2846FEF7B8
:10325000B6FD0E4AE36A11688B4288BF13600C4AC0
:103260001420294600FB0320FEF786FD094BE26A85
:103270001B68DB6A9A4283BF074B0120186000205D
:1032800038BD29460548EFE7E0470020E847002021
:103290007443002068430020604800201C48002040
:1032A000034B1B680360034B1B684360704700BF00
:1032B000184800205C48002070B50C46054640B90F
:1032C0004FF0500383F31188BFF36F8FBFF34F8F1D
:1032D000FEE741B94FF0500383F31188BFF36F8FBE
:1032E000BFF34F8FFEE7FEF7E5FD0F4B69681A68E5
:1032F0002368581C0ED00D482E680068864201D005
:103300008A420ED2521A9A4209D29B1A2360284648
:10331000FFF7C6FF0024FEF7EFFD204670BD002337
:1033200023600124F7E700BF5C4800201848002014
:10333000014B01221A60704760480020054B1B6852
:1033400033B1054B1B68002B0CBF022000207047D7
:103350000120704730480020E047002038B504467F
:1033600008B9002038BD1B4B1B68984208D04FF0AD
:10337000500383F31188BFF36F8FBFF34F8FFEE7C6
:10338000036D43B94FF0500383F31188BFF36F8F80
:10339000BFF34F8FFEE7C16AC26C013B91420365E8
:1033A000DFD0002BDDD1051D2846FEF708FDE36CBC
:1033B000E362C3F13802A261074A11688B4288BFF9
:1033C0001360064A142000FB03202946FEF7D4FCB4
:1033D000012038BD68430020E847002074430020E6
:1033E000F7B5114CFEF766FD2568BDB90F4F104EBD
:1033F0003846FEF7B3FC3046FEF7B0FC0D4B0E4AE4
:103400001F600E4B10211E600A2000950C4BFFF729
:1034100053F8206010B10B49FFF712FB03B0BDE871
:10342000F040FEF769BD00BF884900200C4900202C
:1034300020490020644800206C4800206848002093
:103440003849002089480008914208B54160006170
:103450000AD8D21A83699A420DD2084B011D186806
:10346000FEF796FC002008BD9A4201D2994202D292
:10347000011D034BF3E7012008BD00BF6848002091
:103480006448002010B588B0FFF7AAFF134B1B68F3
:1034900043B94FF0500383F31188BFF36F8FBFF32D
:1034A0004F8FFEE7002407AA06A905A805940694F5
:1034B000FEF748FC059B0293069B019302230093B1
:1034C000079A074907482346FFF74CFC064B18604C
:1034D0000028DED0012008B010BD00BF88490020C0
:1034E0008E480008C13500088C49002030B51546CB
:1034F00085B01A46034640B94FF0500383F3118854
:10350000BFF36F8FBFF34F8FFEE70D4C206880B184
:1035100005298DE8220002930DDCFFF70FFF002341
:10352000022808BF089A206818BF1A466946FFF7A4
:1035300037F805B030BD00236946FFF70AF9F8E710
:10354000884900202DE9F3411B4D4FF000082B68FE
:103550001A6832B9194A11682960136002B0BDE8CF
:10356000F081DB68DC681E68271D3846FEF727FC03
:10357000636A20469847E369012BE8D1A369334485
:103580009E4206D26360246139462868FEF700FC3B
:10359000DDE70023CDF80080324619462046FFF7CC
:1035A000A5FF0028D3D14FF0500383F31188BFF358
:1035B0006F8FBFF34F8FFEE76448002068480020FC
:1035C0002DE9F04F724DDFF8D88189B02F462B6876
:1035D000D3F800B0BBF1000F44D0DB68D3F8009003
:1035E000FFF768FCFFF76EFC6A4B1A689042824650
:1035F0001E4639D20393FFF7A5FF039B0124C3F8AE
:1036000000A0002C40F08A80BBF1000F6BD0D145A8
:1036100000F28280FFF7ECFC3B68DB68D3F80CB06B
:103620000BF10400FEF7CBFBDBF81C30012B1DD1A6
:10363000DBF818104B46524649445846FFF704FF42
:10364000A0B1009423464A4621465846FFF74EFF54
:1036500060B94FF0500383F31188BFF36F8FBFF34E
:103660004F8FFEE7D946BBE70024C8E7DBF82430DC
:1036700058469847DFF82491D9F80000002204A9A1
:10368000FFF7CAF80028A2D0049B002B03DA0799A1
:103690000698059B9847049B002BEDDB069C63690D
:1036A00013B1201DFEF78BFBFFF70CFC336898422B
:1036B000834601D2FFF746FF049AC6F800B0092AF4
:1036C000DAD80123934013F4047A4ED113F0C70FD4
:1036D00027D19B06D0D594F82C30002BCCD1204696
:1036E000FEF7E6FDC8E72C4B1B681A68B2FA82F2B7
:1036F00052092A4BA9EB0A011868FFF7B3F9FFF743
:1037000077FC0028B6D14FF08053C8F80030BFF3E3
:103710004F8FBFF36F8FADE72246EAE7FFF768FCF4
:10372000A8E7A169059B5A4619442046FFF78CFE7D
:103730000028A1D0636A20469847E369012B9BD1FA
:10374000A2690599CDF800A00A4453465146204687
:10375000FFF7CCFE00288FD14FF0500383F3118880
:10376000BFF36F8FBFF34F8FFEE70599A16141B99A
:103770004FF0500383F31188BFF36F8FBFF34F8F68
:10378000FEE75B465A4659442046FFF75DFE73E765
:1037900064480020344900206848002088490020FF
:1037A00004ED00E008B500F07FFBFEE710B5002354
:1037B0004FF060428B4200DB10BDD2F8804EE40730
:1037C00003D5D2F8004EE40702D40133F2E700BF7C
:1037D0001468002CFBD0C45C1470F6E710B50948DF
:1037E0000C460F21FFF7E2FF2046FCF7F1FC0146F3
:1037F0002046FFF7DBFF02210348BDE81040FFF73A
:10380000D5BF00BFA24800089D49000830B595B05B
:103810003022002108A800F0E0FB0021142203A8B8
:1038200000F0DBFB00251B4B01951A6C42F0805227
:103830001A641B6C03F080530193019B164B029595
:103840001A6842F480421A601B680F9503F48043A3
:103850000293029B01230B9310230C9308231093D4
:1038600050230224119308A80423139308940E9460
:103870001294FDF791F90F23039321464FF48053DF
:1038800003A80494059506930795FDF735FB15B03D
:1038900030BD00BF003802400070004080B58EB0DF
:1038A000FCF776FEFFF7B2FF142200244E4D0021F4
:1038B0000DEB020000F091FB01942B6B4B4843F0A1
:1038C00080032B632B6B03F080030193019B029415
:1038D0002B6B43F004032B632B6B03F00403029365
:1038E000029B03942B6B43F001032B632B6B03F0C0
:1038F00001030393039B04942B6B43F002032B639C
:103900002B6B03F00203049322460821049BFDF76E
:103910003DF9224610213648FDF738F922464FF48A
:10392000E0413448FDF732F90127082305A92F4863
:1039300005931026069707940894FDF747F805A904
:103940002B480596069707940894FDF73FF84FF427
:10395000E04305A927480593069707940894FDF7C7
:1039600035F800942B6B43F400132B632B6B03F49B
:1039700000132246052100933046009BFCF746FECB
:103980003046FCF777FE052122461120FCF73EFE6B
:103990001120FCF76FFE1848184A84604FF4E13399
:1039A00080E80C000C234361C46004618461C4613D
:1039B000FDF7DCFDFDF7D8FF00F08CF9242221464D
:1039C00005A800F00AFB0E4B05934FF400730A9311
:1039D00005AA182321460B480B93FEF701F80A4B62
:1039E0001860FDF7DDFFFEE70038024000080240E6
:1039F0000000024000040240A84A002000440040A9
:103A000096480008A5370008E04900200268034BEB
:103A10009A4201D1FCF7D6BD704700BF00000140BB
:103A20007047000007B50F4B00220092596C41F41B
:103A300080415964596C01F48041009100990192D0
:103A4000196C41F0805119641B6C03F08053019391
:103A50000F216FF00100019BFCF7D8FD03B05DF86A
:103A600004FB00BF0038024070B5064688B014223F
:103A7000002103A800F0B1FA3268334B9A4260D1BA
:103A8000002503F5FA3301951A6C3048304C42F4A6
:103A900000321A641A6C02F400320192019A029503
:103AA0001A6B42F001021A631B6B03F001030293CD
:103AB000029B0C2303930223049301230593032306
:103AC000069303A907230793FCF780FF214BA5600A
:103AD0004FF0006C84E808104FF4806323612046A7
:103AE0004FF48073E5606561A561E36125626562FD
:103AF000FCF7E4FD08B1FFF793FF7463164BA66370
:103B0000164C4FF000654FF0400E84E828404FF40B
:103B1000806200232046E36022616361A361E36168
:103B200023626362FCF7CAFD08B1FFF779FF3463D3
:103B3000262000220521A663FCF768FD2620FCF75D
:103B400099FD08B070BD00BF004400400000024075
:103B5000E449002088600240A0600240484A0020FA
:103B600030B5014689B000221920FCF74FFD19201D
:103B7000FCF780FD0025144B02955A6C134C42F063
:103B800001025A645B6C03F00103029301A903A8CC
:103B9000029BFDF76BFAFDF759FA0D4B236040F2DB
:103BA000E733E3600B4BB0FBF3F001386060204675
:103BB0002561A560FDF796FB20B92046FDF775FA53
:103BC00009B030BD0120FBE700380240E84A002080
:103BD0000000014040420F007047FEE7FEE7FEE7AD
:103BE000FEE770470148FCF737BE00BFE4490020FC
:103BF0000148FCF731BE00BF484A00200148FDF7EC
:103C000068BA00BFE84A00200148FDF705BE00BFC2
:103C1000A84A002008B50A4B1968024609B90949A3
:103C200019601868694602448A4206D900F0A0F972
:103C30000C2303604FF0FF3008BD1A6008BD00BFC1
:103C400090490020384B00200F49D1F8883043F4C8
:103C50007003C1F888300D4B1A68002042F0010251
:103C60001A6098601A6822F0847222F480321A6016
:103C7000074A5A601A6822F480221A60D8604FF00E
:103C800000638B60704700BF00ED00E00038024029
:103C90001030002410B50D480D4C006800231A4662
:103CA0002146FDF7A3FF4FF060432278D3F8801E32
:103CB000C807D2B209D5D3F8001EC90701D410BD78
:103CC00000BF19680029FBD01A7010BD2C4B0020D2
:103CD000304B002010B5002201214FF48070FDF719
:103CE0003DFF044C20600020FDF7F4FE024B1860FD
:103CF000206810BD2C4B0020284B002010B5174C1D
:103D0000012210212046FCF741FF4FF47A70FDF7A5
:103D1000C7FE002210212046FCF738FF04F500649E
:103D20004FF47A70FDF7BCFE012208212046FCF713
:103D30002DFF4FF47A70FDF7B3FE002208212046D4
:103D4000FCF724FF41F28830FDF7AAFE0122044966
:103D50000448BDE81040FDF771BC00BF0000024000
:103D6000304B0020A84A00202DE9F04393B00446D0
:103D70000F46FCF72DFA214682B21C48FDF724FCC1
:103D8000054680BB02AC12AE014640222046DFF859
:103D9000609000F022F906F8415D25462B780A2B49
:103DA000A5EB040808D04FF4967300223146D9F8E9
:103DB0000000FDF75FFF38B1B8F1020F09DC0C4BD2
:103DC0001868FDF799FF09E09DF8073005F8013BF9
:103DD000E4E73946204600F03DF920B94FF0FF30C6
:103DE00013B0BDE8F0830020FAE700BFA84A002026
:103DF0002C4B002070B5094D094E0A244FF49672E1
:103E000029463046FFF7B0FF38B140F6B830FDF72D
:103E100047FE013CF2D14FF0FF3070BDE44800088E
:103E2000F148000870B5094D094E0A244FF4967206
:103E300029463046FFF798FF38B140F6B830FDF715
:103E40002FFE013CF2D14FF0FF3070BDCA48000890
:103E5000D848000800B591B00346094A4021684699
:103E600000F0C4F84FF4967206496846FFF77CFFED
:103E7000003018BF0120404211B05DF804FB00BFC4
:103E800087490008A049000808B54FF49672044914
:103E90000448FFF769FF003018BF0120404208BD09
:103EA000734900087D490008F8B5FFF727FF164E53
:103EB000164D174F0524FFF79DFF38B116213046E8
:103EC000FFF774FC01212846FFF770FCFFF7AAFFFB
:103ED0003846FFF7BFFF38B111210E48FFF766FCE7
:103EE00001212846FFF762FCFFF7CEFF48B1013CF5
:103EF000E1D149210848FFF759FC01210348FFF7A8
:103F000055FC0020F8BD00BFFC4800089E49000891
:103F1000134900081749000829490008DFF834D080
:103F2000002103E00C4B5B58435004310B480C4B11
:103F300042189A42F6D30B4A02E0002342F8043BAF
:103F4000094B9A42F9D3FFF77FFE00F017F8FFF70D
:103F5000A5FC704700000220E8490008000000208E
:103F60007000002070000020384B0020FEE70000A9
:103F7000014B1868704700BF0C00002070B50D4E53
:103F80000D4CA41BA4100025A54209D10B4E0C4CCE
:103F900000F068FCA41BA4100025A54205D170BD4B
:103FA00056F8253098470135EEE756F82530984702
:103FB0000135F2E7E0490008E0490008E04900085F
:103FC000E449000810B5431E0A44914200D110BDD7
:103FD00011F8014B03F8014FF7E7024403469342FF
:103FE00000D1704703F8011BF9E700000CB430B5AD
:103FF000174B0C1E9DB01D6808DA8B232B604FF009
:10400000FF301DB0BDE8304002B070474FF402737E
:10401000ADF8143014BF04F1FF3323460493079323
:104020004FF6FF7302900690ADF81630209A21AB40
:1040300002A92846019300F083F8431CBCBF8B23E0
:104040002B60002CDDD0029B00221A70D9E700BF44
:104050000C000020F0B5037833B1034618465E1C0F
:104060001B7833B91846F0BD0B78002B18BF002021
:10407000F0BD4D1E441E15F8012F002AF3D014F890
:10408000017F97423346F6D0E8E72DE9F0478E6886
:104090009E4282460C469146984635D88A8912F44B
:1040A000906F31D0256809696F1A6569022305EBA5
:1040B000450595FBF3F508F101033B449D4238BFEC
:1040C0001D46530531D5294600F02CFB064650B954
:1040D0000C23CAF80030A38943F04003A3814FF0BA
:1040E000FF30BDE8F0873A462169FFF76BFFA389EF
:1040F00023F4906343F08003A381266165613E440D
:10410000ED1B2660A5604646464528BF464632461A
:104110004946206800F09EFAA3689B1BA3602368B1
:104120001E4426600020BDE8F0872A4600F058FBB8
:1041300006460028E1D12169504600F0A5FAC7E7FC
:104140002DE9F04F9DB0804603938B891C060D46E8
:1041500016460FD50B696BB9402100F0E3FA2860D1
:10416000286128B90C23C8F800304FF0FF30C5E0B3
:1041700040236B610023099320238DF829303023DD
:104180008DF82A304FF0010B37463C4614F8013BBE
:10419000002B3CD1B7EB060A0BD0534632462946DA
:1041A0004046FFF772FF013000F0A380099B5344A3
:1041B00009933B78002B00F09C8000234FF0FF32E6
:1041C00004930793059206938DF853301A930522B2
:1041D00021785048FCF704F8671C049BD8B9D9062D
:1041E00044BF20228DF853201A0744BF2B228DF89C
:1041F000532022782A2A16D0079A00210A2027461F
:1042000001343B78303B092B51D9C9B111E0252B42
:10421000C0D02746B9E73F4A801A0BFA00F018438E
:1042200004903C46D3E7039A111D12680391002ABB
:1042300001DB079204E0524243F002030792049329
:104240003B782E2B0ED17B782A2B07F1010132D13E
:10425000039B1A1D1B680392002BB8BF4FF0FF335E
:10426000023705932C4C397803222046FBF7B8FF20
:1042700038B14023001B03FA00F0049B034304936E
:104280000137397825488DF8281006227E1CFBF767
:10429000A7FF002835D0224BFBB9039B073323F03F
:1042A000070308330393099B4B4409936CE700FB16
:1042B00002320121A3E70023059318460A240F4682
:1042C00001313A78303A092A03D9002BCAD0059037
:1042D000C8E704FB00200123F1E703AB00932A4663
:1042E000104B04A94046AFF30080B0F1FF3F814678
:1042F000D9D1AB895B063FF538AF09981DB0BDE851
:10430000F08F03AB00932A46064B04A9404600F009
:1043100081F8EAE7A5490008AB490008AF49000861
:10432000000000008B4000082DE9F04791461F4631
:104330008A680B69DDF820809342B8BF1346C9F83C
:10434000003091F8432006460C4612B10133C9F8FB
:1043500000302368990642BFD9F800300233C9F80B
:104360000030256815F0060507D104F1190AE36845
:10437000D9F800209B1A9D4229DB94F8433022682B
:10438000003318BF012392062ED404F143023946AC
:104390003046C047013021D02368E568D9F80020B5
:1043A00003F00603042B08BFAD1AA36822690CBFF3
:1043B00025EAE57500259342C4BF9B1AED184FF01E
:1043C00000091A344D451BD10020BDE8F0870123B8
:1043D000524639463046C047013003D14FF0FF30D6
:1043E000BDE8F0870135C2E7E1185A1C302081F89A
:1043F0004300224494F8451082F843100233C4E786
:104400000123224639463046C0470130E6D009F143
:104410000109D7E72DE9F04317460A7E85B06E2AD9
:10442000984606460C460C9B01F1430E00F0BC80FA
:104430001AD8632A2ED00AD8002A00F0C880582A39
:1044400000F08A8004F1420584F842202AE0642AC0
:1044500001D0692AF6D121681A6811F0800F23D0A3
:10446000111D1960136827E0732A00F0B48008D882
:104470006F2A2AD0702AE5D10A6842F020020A6029
:1044800003E0752A21D0782ADCD1782284F84520EF
:104490006E4964E01A6801F14205111D1960136844
:1044A00084F842300123A3E011F0400F02F104012F
:1044B0001960D7D0B2F90030002B03DA2D225B420D
:1044C00084F8432062490A2217E02068196810F036
:1044D000800F03D0081D18600B6806E010F0400F35
:1044E00001F104001860F7D00B8859496F2A14BFF6
:1044F0000A220822002084F843006568A560002D88
:10450000C0F29C80206820F004002060002B3FD186
:10451000002D40F095807546082A0BD12368DA07F4
:1045200008D5236962689A42DEBF302305F8013C52
:1045300005F1FF35AEEB05032361CDF800803B4666
:1045400003AA21463046FFF7EFFE013055D14FF068
:10455000FF3005B0BDE8F08381F845203C49226872
:10456000186812F0800F00F104051D6001D0036887
:1045700002E05506FBD50388D00744BF42F0200275
:1045800022601BB9226822F0200222601022B1E7CB
:104590007546B3FBF2F002FB1033CB5C05F8013D2E
:1045A00003460028F5D1B7E708681A68496910F092
:1045B000800F04D0101D18601368196007E010F018
:1045C000400F02F1040018601368F6D01980002330
:1045D00023617546B1E71A68111D19601568626894
:1045E00000212846FBF7FCFD08B1401B60606368B2
:1045F0002361002384F843309FE723692A46394624
:104600003046C0470130A2D023689B0707D500255C
:1046100004F11909E368039A9B1A9D4205DBE068DF
:10462000039B9842B8BF184693E701234A46394690
:104630003046C04701308AD00135EBE7002BA7D1C7
:104640000B7884F8423004F1420565E7C749000859
:10465000B6490008884210B501EB020303D8421E98
:1046600099420CD110BD9842F9D28118D21AD34286
:1046700000D110BD13F8014D01F8014DF7E711F815
:10468000014B02F8014FEBE738B50546002945D04C
:1046900051F8043C0C1F002BB8BFE41800F0D6F80A
:1046A0001F4A1368104633B9636014602846BDE89A
:1046B000384000F0CCB8A3420CD92168621893426C
:1046C00004BF1A685B68636004BF5218226004600C
:1046D000ECE713465A680AB1A242FAD91968581889
:1046E000A0420BD120680144581882421960DDD1E4
:1046F000106852685A6001441960D7E702D90C2348
:104700002B60D3E7206821188A4204BF11685268E1
:10471000626004BF091821605C60C7E738BD00BF54
:104720009449002070B5CD1C25F0030508350C2DEB
:1047300038BF0C25002D064601DBA94203D90C2306
:104740003360002070BD00F081F8234A14682146D0
:1047500091B9224C23681BB9304600F067F82060FD
:104760002946304600F062F8431C26D10C23336002
:10477000304600F06CF8E4E70B685B1B1AD40B2B97
:104780000FD90B60CD50CC18304600F060F804F122
:104790000B00231D20F00700C31A1BD05A42E25021
:1047A00070BD8C420DBF63684B686360136018BFB7
:1047B0000C46E9E70C464968CAE7C41C24F0030428
:1047C000A04205D0211A304600F030F80130CDD09B
:1047D0002560D9E770BD00BF9449002098490020AA
:1047E000F8B5074614460E4621B91146BDE8F84013
:1047F000FFF798BF22B9FFF747FF25462846F8BDC7
:1048000000F026F884420FD921463846FFF78AFF88
:1048100005460028F2D031462246FFF7D3FB314649
:104820003846FFF731FFE9E73546E7E738B5064C8C
:104830000023054608462360FFF7ECF9431C02D12C
:10484000236803B12B6038BD344B0020704770479C
:1048500051F8040C0028A0F10400BCBF0B58C0188C
:1048600070470000F8B500BFF8BC08BC9E46704712
:0C487000F8B500BFF8BC08BC9E467047BD
:10487C00000610160006101649444C4500546D7283
:10488C005100546D72205376630064656661756CDB
:10489C00745461736B005461736B204F7665726650
:1048AC006C6F773A2000000000000000000001024D
:1048BC0003040607080900000000010203042B434F
:1048CC00475245473A20302C310D0A0041542B43B6
:1048DC00475245473F0D0A002B435245473A20307B
:1048EC002C310D0A0041542B435245473F0D0A0011
:1048FC00556E61626C6520746F20526567697374C4
:10490C0065722053494D0077777700556E61626C64
:10491C006520746F207365742041504E002A2A2A3A
:10492C002A2A2A2A2A2A2A2A2A2A2A2A2A2A2A2ADB
:10493C002A2A2A2A2A2A505050204449414C2046DF
:10494C0041494C45442A2A2A2A2A2A2A2A2A2A2A2E
:10495C002A2A2A2A2A2A2A2A2A2A2A2A2A2A2A2AAB
:10496C002A2A2A2A2A2A00434F4E4E4543540D0A1E
:10497C00004154442A3939230D0A0041542B434732
:10498C0044434F4E543D312C224950222C22257346
:10499C00220D0A004F4B0D0A00232D302B200068EE
:1049AC006C4C006566674546470030313233343510
:1049BC00363738394142434445460030313233347E
:0C49CC0035363738396162636465660077
:0849D800D8B8FF7F01000000C8
:0449E000B501000815
:0449E4009101000835
:1049E80001000000AAAAAAAA0024F40010000020CE
:1049F80000000000000000000000000000000000AF
:104A0800000000000000000000000000000000009E
:104A1800000000000000000000000000000000008E
:104A2800000000000000000000000000000000007E
:104A3800000000000000000000000000000000006E
:104A4800000000000000000000000000000000005E
:0400000508003F1D93
:00000001FF
