:020000040800F2
:10000000000002203D3C0008B53B0008B73B00085B
:10001000B93B0008BB3B0008BD3B000800000000E6
:10002000000000000000000000000000C11D0008EA
:10003000BF3B000800000000511E0008B51E00086C
:100040008D3C00088D3C00088D3C00088D3C00086C
:100050008D3C00088D3C00088D3C00088D3C00085C
:100060008D3C00088D3C00088D3C00088D3C00084C
:100070008D3C00088D3C00088D3C00088D3C00083C
:10008000C13B0008CD3B00088D3C00088D3C0008BA
:100090008D3C00088D3C00088D3C00088D3C00081C
:1000A0008D3C0008D93B00088D3C00088D3C0008C1
:1000B0008D3C00088D3C00088D3C00088D3C0008FC
:1000C0008D3C00088D3C00088D3C00088D3C0008EC
:1000D0008D3C00088D3C0008E53B00088D3C000885
:1000E0008D3C00088D3C00088D3C00088D3C0008CC
:1000F0008D3C00088D3C00088D3C00088D3C0008BC
:100100008D3C00088D3C00088D3C00088D3C0008AB
:100110008D3C00088D3C00088D3C00088D3C00089B
:100120008D3C00088D3C00088D3C00088D3C00088B
:100130008D3C000800000000000000008D3C00081D
:100140008D3C00088D3C00088D3C00088D3C00086B
:100150008D3C00088D3C00088D3C00088D3C00085B
:100160008D3C00088D3C00088D3C00088D3C00084B
:100170008D3C00088D3C00080000000000000000DD
:080180008D3C00088D3C0008D5
:1001900010B5054C237833B9044B13B10448AFF3C1
:1001A00000800123237010BD0C000020000000001F
:1001B000003D000808B5034B1BB103490348AFF3EA
:1001C000008008BD0000000010000020003D000875
:1001D000034613F8012B002AFBD1181A0138704787
:1001E00053B94AB9002908BF00281CBF4FF0FF319E
:1001F0004FF0FF3000F07AB9ADF1080C6DE904CE94
:1002000000F006F8DDF804E0DDE9022304B07047F1
:100210002DE9F0478C460D460446089E002B51D12F
:100220008A4217466DD9B2FA82FEBEF1000F0BD09A
:10023000CEF1200C01FA0EF520FA0CFC02FA0EF7B2
:100240004CEA050C00FA0EF44FEA174A250CBCFBE9
:10025000FAF81FFA87F90AFB18CC45EA0C4508FBA7
:1002600009F3AB420AD9ED1908F1FF3280F023817E
:10027000AB4240F22081A8F102083D44ED1AA4B23D
:10028000B5FBFAF00AFB105544EA054400FB09F9F6
:10029000A14509D9E41900F1FF3380F00A81A14595
:1002A00040F2078102383C44A4EB090440EA0840CC
:1002B0000021002E61D024FA0EF400233460736014
:1002C000BDE8F0878B4207D9002E54D0002186E884
:1002D00021000846BDE8F087B3FA83F1002940F019
:1002E0008E80AB4202D3824200F2FA80841A65EB20
:1002F00003050120AC46002E3FD086E81010BDE873
:10030000F08712B90127B7FBF2F7B7FA87FEBEF103
:10031000000F34D1EB1B3A0C1FFA87FC0121B3FB11
:10032000F2F8250C02FB183345EA03450CFB08F3F1
:10033000AB4207D9ED1908F1FF3002D2AB4200F20F
:10034000D1808046ED1AA3B2B5FBF2F002FB105546
:1003500043EA05440CFB00FCA44507D9E41900F16D
:10036000FF3302D2A44500F2B8801846A4EB0C0477
:1003700040EA08409DE731463046BDE8F087CEF1BF
:10038000200405FA0EF307FA0EF720FA04F83A0CE7
:1003900025FA04F448EA0308B4FBF2F14FEA1845E1
:1003A00002FB11441FFA87FC45EA044501FB0CF3EC
:1003B000AB4200FA0EF409D9ED1901F1FF3080F0DB
:1003C0008A80AB4240F2878002393D44EB1A1FFA23
:1003D00088F5B3FBF2F002FB103345EA034500FB5E
:1003E0000CF3AB4207D9ED1900F1FF386FD2AB42E5
:1003F0006DD902383D44EB1A40EA01418FE7C1F163
:10040000200722FA07F88B4005FA01F448EA0303B3
:1004100020FA07FE4FEA134CFD404EEA040EB5FBEE
:10042000FCF94FEA1E440CFB19551FFA83F844EA05
:10043000054509FB08F4AC4202FA01F200FA01FAA0
:1004400008D9ED1809F1FF3043D2AC4241D9A9F1E6
:1004500002091D442D1B1FFA8EFEB5FBFCF00CFBA0
:1004600010554EEA054400FB08F8A04507D9E418EA
:1004700000F1FF3529D2A04527D902381C4440EAB3
:100480000940A4EB0804A0FB02894C45C6464D4632
:1004900015D312D056B1BAEB0E0364EB050404FA7F
:1004A00007F7CB401F43CC40376074600021BDE8A4
:1004B000F0871846F8E69046E0E6C245EAD2B8EB87
:1004C000020E69EB03050138E4E72846D7E740460A
:1004D00091E78146BEE7014678E702383C4445E7AC
:1004E000084608E7A8F102083D442BE7704700BF23
:1004F00008B50B4B1A6842F400721A601A6842F48D
:1005000080621A601A6842F480721A60032000F058
:100510002FF8002003F012FB03F072FA002008BD50
:10052000003C0240034A044B11681B780B441360E3
:10053000704700BF2C49002000000020014B1868C4
:10054000704700BF2C49002038B50446FFF7F6FF7E
:10055000631C1CBF054B1B78054618BFE418FFF74A
:10056000EDFF401B8442FAD838BD00BF00000020D8
:10057000074AD36823F4E0631B041B0C43F0BF63FA
:10058000000243F4003300F4E0600343D36070479B
:1005900000ED00E0174B30B5DC68C4F30224C4F171
:1005A0000703251D042B28BF0423062D4FF001054A
:1005B00005FA03F303F1FF338CBF033C0024194019
:1005C000A14005FA04F4013C2240002842EA01025D
:1005D0004FEA0212ADBF00F1604000F00F00064B81
:1005E00000F56140B5BFD2B2D2B21A5480F80023F0
:1005F00030BD00BF00ED00E014ED00E0002808DB96
:100600004209012300F01F0003FA00F0014B43F8F8
:100610002200704700E100E00368DAB223F47F7340
:1006200023F003031821103AB2FBF1F20449032A24
:1006300088BF0433895C8365C165806D704700BFE6
:10064000183D000870B50446FFF778FF0546002CFA
:1006500071D0002384F834302268022384F83530C6
:10066000136823F00103136021680B68D8073CD49A
:100670000B68324D6268A0691D40A3681343E268AD
:1006800013432269134362691343E269034313432B
:10069000226A1343626A042A43EA050301BF266BF8
:1006A000E56A35432B430B604B69042A23F00703AB
:1006B00043EA02030BD1A26AE56A13433DB1F8B9DC
:1006C000012A2DD001D3022A01D1EA012BD44B619A
:1006D0002046FFF7A1FFE26D3F2393408360002097
:1006E0000123606584F8353070BDFFF727FF401B9C
:1006F0000528B9D920236365032084F8350070BD2F
:10070000B0F5005F13D1032AE1D801A050F822F020
:1007100027070008CB060008270700082107000864
:10072000B5F1C07FD3D1402363650120E5E7022AFC
:10073000F9D9032AC8E7012070BD00BF3F8010F03F
:1007400070B590F83440012C36D0012480F8344044
:1007500090F83540866D012C4FF000054FF00204F3
:1007600028D180F8354004684565256825F4802542
:10077000256063608368402B0EBFA260A160E260C9
:10078000C26D08BFE1603F239340B360236843F02C
:1007900016032360636943F080036361036C1BB13C
:1007A000236843F008032360236843F001032360B8
:1007B000002070BD80F83450022070BD90F83530B4
:1007C000022B03D080234365012070470268052374
:1007D00080F83530136823F0010313600020704760
:1007E000F7B5002301935A4B856D1F68C36D2E68C2
:1007F00008229A40164204460CD001680868400757
:1008000008D5086820F004000860AA60626D42F014
:100810000102626501229A40164208D021684969A6
:10082000090641BFAA60626D42F0020262650422BD
:100830009A40164208D021680968880741BFAA601B
:10084000626D42F00402626510229A40164210D096
:100850002368196809070CD5AA601A68500335D5B2
:100860001B68190301D4236C00E0A36C0BB1204674
:100870009847E16D20228A40164238D023681868D4
:10088000C60634D5AA6094F83520052A1A6825D101
:1008900022F016021A605A6922F080025A61226C14
:1008A0000AB9A26C1AB11A6822F008021A603F2332
:1008B0008B40AB60002384F83430012384F835305A
:1008C000236D0BB12046984703B0F0BD1A68D205DE
:1008D0005EBF1A6822F008021A60C4E7500328D5E8
:1008E0001B68190332D4636C0BB120469847636DC3
:1008F000002BE9D0636DDA0719D50523226884F847
:100900003530136823F0010313604FF41653B7FB1F
:10091000F3F7019B01339F42019302D31368DB0776
:10092000F7D4002384F83430012384F83530E36CA5
:10093000C7E71A6812F4807208D1196821F0100113
:100940001960012384F8342084F83530E36BCBE759
:10095000080000202DE9F04F85B00B68DFF8AC816E
:10096000684ADFF8AC91019300234FF0010E019C1F
:100970000EFA03FE0EEA0406B64540F0AE804C685F
:1009800024F01007022F16D14FEAD30A00EB8A0A8F
:1009900003F0070BDAF820504FEA8B0B4FF00F0CE7
:1009A0000CFA0BFC25EA0C0C0D6905FA0BF545EA6F
:1009B0000C05CAF820504FEA430A0325D0F800B0CE
:1009C00005FA0AF5ED4304F0030C0BEA050B0CFAEB
:1009D0000AFC013F4CEA0B0C012FC0F800C011D8F3
:1009E000876807EA050BCF6807FA0AFC4CEA0B0791
:1009F0008760476827EA0E0EC4F300179F4047EA56
:100A00000E074760C7683D408F6807FA0AF73D4305
:100A1000C560E50061D54FF0000BCDF80CB0D8F8FB
:100A20004470394D47F48047C8F84470D8F8447092
:100A300007F480470397039F23F0030707F18047DC
:100A400007F59C3703F0030CD7F808A04FEA8C0C8D
:100A50004FF00F0E0EFA0CFEA8422AEA0E0E43D0FB
:100A600005F58065A84241D005F58065A8423FD0D4
:100A700005F58065A8423DD005F58065A8423BD0CC
:100A800048453BD005F50065A84239D005F580659D
:100A9000A84214BF0825072505FA0CF545EA0E05FE
:100AA000BD601568F74314F4803F0CBF3D403543EB
:100AB0001560556814F4003F0CBF3D403543556048
:100AC000956814F4801F0CBF3D4035439560D56890
:100AD000A40254BF3D403543D5600133102B7FF451
:100AE00044AF05B0BDE8F08F5D46D5E70125D3E7FB
:100AF0000225D1E70325CFE70425CDE70525CBE780
:100B00000625C9E7003C01400000024000380240D1
:100B1000001402400AB1816170470904FBE700003C
:100B20002DE9F341044618B9012002B0BDE8F08177
:100B30000368DD0710D42368980758D423681A0780
:100B400000F19A8023685B0700F1B880A269002A4F
:100B500040F019810020E8E7A64B9A6802F00C02E9
:100B6000042A07D09A6802F00C02082A0AD15B68AE
:100B7000590207D59F4B1B689A03DCD56368002B8D
:100B8000D9D1D1E763689B4DB3F5803F11D12B6874
:100B900043F480332B60FFF7D1FC964D06462B685B
:100BA0009B03C8D4FFF7CAFC801B6428F7D9032035
:100BB000BBE7B3F5A02F04D12B6843F480232B604F
:100BC000E5E72A6822F480322A602A6822F480222B
:100BD0002A60002BDFD1FFF7B1FC06462B689F038C
:100BE000A9D5FFF7ABFC801B6428F7D9DFE7814B61
:100BF0009A6812F00C0F07D09A6802F00C02082ACB
:100C000011D15B685E020ED47A4B1A68950702D543
:100C1000E268012A88D11A68216922F0F80242EAC2
:100C2000C1021A608AE7E268734BB2B101221A600E
:100C3000FFF784FC6F4D06462B68980707D52B6895
:100C4000226923F0F80343EAC2032B6076E7FFF73B
:100C500075FC801B0228EFD9A9E71A60FFF76EFC2C
:100C6000644D06462B6899077FF568AFFFF766FC71
:100C7000801B0228F6D99AE76269604B7AB101229B
:100C80001A60FFF75BFC5B4D06466B6F9F073FF5F5
:100C900059AFFFF753FC801B0228F6D987E71A608B
:100CA000FFF74CFC534D06466B6F98077FF54AAF34
:100CB000FFF744FC801B0228F6D978E74D4B1A6CED
:100CC00012F0805228D101921A6C42F080521A64BC
:100CD0001B6C03F080530193019B0126484D2B6848
:100CE000D9051BD5A368434D012B27D12B6F43F0AA
:100CF00001032B67FFF722FC3E4D074641F288387F
:100D00002B6F9B0739D5002E3FF420AF394A136C67
:100D100023F08053136419E70026DFE72B6843F4C0
:100D200080732B60FFF70AFC07462B68DA05D9D4DD
:100D3000FFF704FCC01B0228F7D938E7052B04D1C4
:100D40002B6F43F004032B67D0E72A6F22F00102D8
:100D50002A672A6F22F004022A67002BCAD1FFF704
:100D6000EDFB41F2883807462B6F9807CBD5FFF78C
:100D7000E5FBC01B4045F7D919E7FFF7DFFBC01BB8
:100D80004045BDD913E71B4DAB6803F00C03082B9E
:100D90003FF4CAAE1B4E0023022A336034D1FFF762
:100DA000CDFB07462B6899011ED4226AE3691343E1
:100DB000626A43EA8213E26A43EA0263A26A0D4C62
:100DC0005208013A43EA02436B6001233360FFF7A4
:100DD000B5FB054623689A013FF5BCAEFFF7AEFBB5
:100DE000401B0228F6D9E2E6FFF7A8FBC01B022849
:100DF000D8D9DCE60038024000004742800E474266
:100E00000070004060004742FFF798FB04462B68E3
:100E10009B017FF59FAEFFF791FB001B0228F6D9DF
:100E2000C5E600BF134908B58B6803F00C03042B1B
:100E300003D0082B03D0104808BD104808BD4A68ED
:100E40004B68496813F4800314BF0C480A48C1F387
:100E5000881118BF002302F03F02A1FB0001FFF739
:100E6000BFF9044B5B68C3F3014301335B00B0FB84
:100E7000F3F008BD003802400024F40040787D0102
:100E80002DE9F0410D46044610B90120BDE8F0817E
:100E9000444B1A6802F00F028A4228D321688F0758
:100EA0002DD4C80740D43F4B1A6802F00F02954278
:100EB00066D3226851076CD4130707D53A4A2169D3
:100EC000936823F4604343EAC1039360FFF7AAFFEA
:100ED000354B364A9B68C3F30313D35CD840344B7D
:100EE0001860002002F02AFE0020BDE8F081CAB29E
:100EF0001A701B6803F00F039942C6D1CEE72A4B44
:100F000011F0040F1EBF9A6842F4E0529A600E0777
:100F100042BF9A6842F460429A609A68A06822F0E0
:100F2000F00202439A60BCE762681F4B012A1DD1A0
:100F30001B6813F4003FA8D01B4EB36823F00303D3
:100F40001343B360FFF7FAFA41F288380746B368F3
:100F5000626803F00C03B3EB820FA4D0FFF7EEFA44
:100F6000C01B4045F3D90320BDE8F081911E012943
:100F70001B6802D813F0007FDDE713F0020FDAE7F9
:100F8000EAB21A701B6803F00F039D427FF47DAF35
:100F90008FE70549E0688B6823F4E05303438B60D7
:100FA0008AE700BF003C0240003802405A3D00087A
:100FB00008000020044B054A9B68C3F38223D35CDE
:100FC000034A1068D8407047003802406A3D000864
:100FD00008000020044B054A9B68C3F34233D35CEE
:100FE000034A1068D8407047003802406A3D000844
:100FF000080000200F2303600B4B9A6802F00302E5
:1010000042609A6802F0F00282609A6802F4E0524C
:10101000C2609B68DB0803F4E0530361034B1B6869
:1010200003F00F030B60704700380240003C0240A1
:1010300070470368DA6842F00102DA609A6802F0E9
:101040000702062A1EBF1A6842F001021A60002039
:101050007047704770477047704703681A69910777
:1010600010B504460ED5DA6892070BD56FF0020270
:101070001A619B6901229B07027777D0FFF7EAFF8D
:101080000023237723681A69500710D5DA685107BF
:101090000DD56FF004021A619B69022213F4407FA0
:1010A0002277204668D0FFF7D5FF002323772368F7
:1010B0001A6912070FD5DA6810070CD56FF008020D
:1010C0001A61DB6904229907227720465AD0FFF77C
:1010D000C1FF0023237723681A69D20610D5DA6886
:1010E000D0060DD56FF010021A61DB69082213F4E7
:1010F000407F227720464BD0FFF7ACFF00232377B9
:1011000023681A69D10708D5DA68D20705D56FF0C8
:1011100001021A61204602F067FC23681A69100672
:1011200008D5DA68110605D56FF080021A612046ED
:1011300000F0B7F823681A69520608D5DA68500635
:1011400005D56FF040021A612046FFF785FF23683E
:101150001A69910622D5DA6892061FD56FF020022F
:1011600020461A61BDE8104000F09AB8FFF771FF01
:101170002046FFF770FF83E7FFF76BFF2046FFF77E
:101180006AFF92E7FFF765FF2046FFF764FFA0E7DD
:10119000FFF75FFF2046FFF75EFFAFE710BD0000DF
:1011A000304A0368904212D0B0F1804F0FD0A2F5C0
:1011B0007C4290420BD002F58062904207D002F54B
:1011C0008062904203D002F57842904219D14A6879
:1011D00023F070031343234A904229D0B0F1804F8B
:1011E00026D0A2F57C42904222D002F58062904245
:1011F0001ED002F5806290421AD002F578429042E9
:1012000016D0194A904213D002F5806290420FD056
:1012100002F5806290420BD0A2F59832904207D03E
:1012200002F58062904203D002F58062904203D1C1
:10123000CA6823F4407313434A6923F080031343BD
:1012400003608B68C3620B688362064B984203D0CD
:1012500003F58063984201D10B6903630123436165
:10126000704700BF000001400040014010B5044637
:10127000A0B190F83D3003F0FF021BB980F83C208C
:10128000FFF7D6FE022384F83D302068211DFFF7CA
:1012900087FF012384F83D30002010BD012010BDE0
:1012A000704770470368DA6822F49072DA605A690E
:1012B00022F001025A61202380F83A307047000082
:1012C0002DE9F0470668C2683369C16923F44053C9
:1012D00013433361044683680069F268034360691D
:1012E00022F41642034322F00C020B431343F36033
:1012F0007369A26923F440731343B1F5004F73611E
:101300007A4B7CD19E4203D003F580639E4244D148
:10131000FFF760FE192505FB00F360684FF06409D4
:101320004000B3FBF0F3B3FBF9F34FEA0318FFF708
:1013300051FE636868435B00B0FBF3F7FFF74AFEBA
:10134000636868435B00B0FBF3F3B3FBF9F309FB9D
:101350001373DB003233B3FBF9F35B0003F4F8776C
:10136000FFF738FE626868435200B0FBF2FAFFF7FD
:1013700031FE636868435B00B0FBF3F3B3FBF9F342
:1013800009FB13A3DB003233B3FBF9F303F00703CC
:1013900043443B44B360BDE8F087FFF70BFE1925DB
:1013A00005FB00F360684FF064094000B3FBF0F305
:1013B000B3FBF9F34FEA0318FFF7FCFD63686843DA
:1013C0005B00B0FBF3F7FFF7F5FD636868435B0074
:1013D000B0FBF3F3B3FBF9F309FB1373DB00323318
:1013E000B3FBF9F35B0003F4F877FFF7E3FD626802
:1013F00068435200B0FBF2FAFFF7DCFDB9E79E420A
:1014000002D03B4B9E4240D1FFF7E4FD67681925AF
:101410004FF0640905FB00F3BF00B3FBF7F3B3FB28
:10142000F9F31F01FFF7D6FD636868439B00B0FB2B
:10143000F3F8FFF7CFFD636868439B00B0FBF3F35D
:10144000B3FBF9F309FB13831B013233B3FBF9F34D
:1014500003F0F008FFF7BEFD626868439200B0FB3E
:10146000F2FAFFF7B7FD636868439B00B0FBF3F344
:10147000B3FBF9F309FB13A31B013233B3FBF9F3FD
:1014800003F00F0343EA080383E7FFF793FD676860
:1014900019254FF0640905FB00F3BF00B3FBF7F318
:1014A000B3FBF9F31F01FFF785FD636868439B00F9
:1014B000B0FBF3F8FFF77EFD636868439B00B0FB69
:1014C000F3F3B3FBF9F309FB13831B013233B3FBD3
:1014D000F9F303F0F008FFF76DFD626868439200CE
:1014E000B0FBF2FAFFF766FDBDE700BF0010014058
:1014F00000140140F8B504460E4617461D46216803
:101500000B6836EA030301D10020F8BD6B1CF7D04D
:1015100095B92368DA6822F4D072DA605A6922F049
:1015200001025A61202384F8393084F83A300023CC
:1015300084F838300320F8BDFFF700F8C01B85425F
:10154000DDD2E6E710B5044640B390F8393003F039
:10155000FF021BB980F8382002F074FA22682423B5
:1015600084F83930D36823F40053D3602046FFF762
:10157000A7FE23681A6922F490421A615A6922F080
:101580002A025A61DA6842F40052DA60002020230D
:10159000E06384F8393084F83A3010BD012010BD82
:1015A0002DE9F0411F4690F83930202B04460D46B6
:1015B00090464FD100294AD0002A48D090F83830C0
:1015C000012B47D0012380F838300023C363212347
:1015D00080F83930FEF7B2FFA4F824800646A4F85C
:1015E0002680E38C9BB26BB93B46324640212046B5
:1015F000FFF780FFB0B9202384F8393084F8380031
:10160000BDE8F081E38C013B9BB2E384A368B3F5B2
:10161000805F32463B464FF0800120460ED1FFF7F7
:1016200069FF10B10320BDE8F0812B882268C3F365
:1016300008035360236943B90235D2E7FFF75AFF25
:101640000028EFD123682A785A600135C9E70120C4
:10165000BDE8F0810220BDE8F0810000134690F85B
:101660003A20202A73B5054638D1002934D0002B02
:1016700032D090F83820012A30D00122002480F89E
:1016800038202222C4638162838580F83A20406B2F
:10169000134AC2632E68134A0264134AC264046583
:1016A0000A46311DFFF74CF82B6801941A68019225
:1016B0005A680192019ADA6885F8384042F48072DB
:1016C000DA605A6942F001025A615A6942F04002F6
:1016D0005A61204602B070BD0120FBE70220F9E705
:1016E000EF160008A5170008B1170008704708B5E5
:1016F0000368826B1B6813F4807310D1D385136861
:10170000D96821F48071D960596921F001015961CA
:10171000596921F040015961202382F83A3010467E
:1017200002F056F908BD90F83A30222B10B536D1A8
:10173000836801690268B3F5805F836A23D15268C8
:10174000E9B9C2F3080223F8022B8362C48D013C7D
:10175000A4B2C4858CB90368DA6822F02002DA608A
:10176000DA6822F48072DA605A6922F001025A6162
:10177000202380F83A3002F02BF9002010BDD2B2BD
:1017800023F8012BE1E721B9591C526881621A70D4
:10179000DCE75268591C816202F07F02F7E7022001
:1017A00010BD704708B5806BFFF7FBFF08BD7047A1
:1017B000816B08B50B685A6991F8390021280AD164
:1017C000120608D50022CA84DA6822F0C002DA6064
:1017D000202281F839205B6991F83A20222A06D12B
:1017E0005B0604D50023CB850846FFF75BFDCB6B7A
:1017F00043F01003CB630846FFF7D9FF08BD000094
:1018000003681A68D96870B5160704465D6907D180
:1018100096065AD58D0658D5BDE87040FFF783BFB0
:1018200015F0010502D111F4907F4ED0D30705D5F4
:10183000CE0542BFE36B43F00103E363500704D5D9
:101840001DB1E36B43F00203E363930704D51DB1BD
:10185000E36B43F00403E363160704D51DB1E36BA8
:1018600043F00803E363E36B002B66D0950604D5D1
:10187000880602D52046FFF756FF23685D69E26BB4
:101880001107204602D415F040051AD0FFF70AFDD3
:1018900023685A69520610D55A69606B22F04002DB
:1018A0005A6150B1254B0365FEF788FF002844D0EC
:1018B000606BBDE87040036D18472046FFF777FF67
:1018C00070BDFFF774FFE56370BD160627D50D06E2
:1018D00025D594F83920212A2FD1A268B2F5805F4E
:1018E000226A17D11188C1F308015960216979B9B9
:1018F00002322262E28C013A92B2E284EAB9DA68F8
:1019000022F08002DA60DA6842F04002DA6070BDEC
:101910000132EEE7511C216212785A60EAE7500664
:101920000BD54A0609D5DA6822F04002DA60202396
:1019300084F839302046FFF7D9FE70BD4119000800
:1019400008B5806B0023C385C384FFF730FF08BD53
:10195000EFF3058313B16FF005007047EFF31083C9
:10196000002BF8D1074B1868022806D1EFF311833A
:10197000002BF0D14FF0FF3070470028FAD1012240
:101980001A6070478402002010B5EFF3058313B18D
:101990006FF0050010BDEFF31084002CF8D1094B57
:1019A0001A68022A06D1EFF31183002BF0D14FF011
:1019B000FF3010BD012AFAD102221A6001F08AF923
:1019C000204610BD84020020F0B587B014460022E6
:1019D0000B460592EFF3058272BBEFF310825ABB00
:1019E000284A1268022A02D1EFF3118222BB18B3EF
:1019F00000228DF81320002C3CD0216809B90DF18C
:101A00001301A569002D08BF18256A1E372A2F4625
:101A100035D86268D20732D4666986B1B208D4F884
:101A200008E0D4F80CC0BEF1000F0AD0BCF15B0F87
:101A300002D9246904B1AEB9059807B0F0BD80227F
:101A4000EDE7BCF1000FF7D12469002CF4D105AC0F
:101A50000194009792B201F010F901281CBF0023F5
:101A60000593E9E7CDF808E00194009501F0CEF880
:101A70000590E1E7182780220DF11301E7E7002028
:101A8000DBE700BF8402002008B5EFF3058313B144
:101A90006FF0050008BDEFF31083002BF8D1064B63
:101AA0001B68022B03D1EFF31183002BF0D110B18F
:101AB00001F066FA002008BD8402002073B51446C8
:101AC000EFF305831BB10025284602B070BDEFF38C
:101AD0001083002BF7D11C4B1B68022B03D1EFF3B3
:101AE0001183002BEFD10028EDD00029EBD004B3F7
:101AF000A368E268ABB14F2AE5D92269002AE2D097
:101B0000666901FB00F5AE42DDD30025009500F0CB
:101B10006BFC05460028D6D02168284600F0E4FE7C
:101B2000D2E7002ACFD12369002BCCD16369002BE7
:101B3000C9D1002200F0A5FC05460028C3D0002C26
:101B4000EAD12146E9E700BF8402002013B51C4614
:101B5000EFF3058323B1E8B96FF0030002B010BDC5
:101B6000EFF31083002BF6D1184B1B68022B03D127
:101B7000EFF31183002BEED10028EDD00029EBD03C
:101B80000023224600F0A4FC012811D0DCB96FF03C
:101B90000200E3E70029DFD0002CDDD102AA2346B2
:101BA00042F8044D00F04AFD0128F0D1019B0BB929
:101BB0000020D3E7064B4FF080521A60BFF34F8FDF
:101BC000BFF36F8FF4E76FF00100C7E784020020D6
:101BD00004ED00E013B51C46EFF3058323B1E0B933
:101BE0006FF0030002B010BDEFF31083002BF6D1AD
:101BF000174B1B68022B03D1EFF31183002BEED19F
:101C00000028EDD00029EBD0224600F079FD012814
:101C100010D0D4B96FF00200E4E70029E0D0002C26
:101C2000DED102AA42F8044D00F00EFE0128F1D1E7
:101C3000019B0BB90020D5E7064B4FF080521A608C
:101C4000BFF34F8FBFF36F8FF4E76FF00100C9E769
:101C50008402002004ED00E0034B0360034B0B60A3
:101C600080231360704700BF280200202800002056
:101C7000034B0360034B0B604FF48073136070479A
:101C8000880600208802002000F1080343604FF01E
:101C9000FF32C3600361002382600360704700234A
:101CA0000361704743684B609A688A609A68516024
:101CB0009960036808610133036070470A68531C28
:101CC00030B50AD103695A684A6091608B605960E7
:101CD000036808610133036030BD00F108035C68EC
:101CE0002568AA42EFD32346F9E741688268036971
:101CF0008A60826851605968884208BF5A60002231
:101D000002611A68013A1A601868704782B00023AD
:101D100001930D4B1B68013308D04FF0500383F340
:101D20001188BFF36F8FBFF34F8FFEE74FF0500363
:101D300083F31188BFF36F8FBFF34F8F019B002B8D
:101D4000FCD002B0704700BF0400002008480068C3
:101D5000006880F308884FF0000080F3148862B6B2
:101D600061B6BFF34F8FBFF36F8F00DF00BF00007E
:101D700008ED00E0DFF80C00016841F4700101603B
:101D80007047000088ED00E04FF0807340F8043C9D
:101D9000074B40F80C3C21F001016FF0020340F8C2
:101DA000081C40F8202C40F8243C4438704700BF01
:101DB0000D1D0008000000000000000000000000F1
:101DC000074B19680868B0E8F04F80F30988BFF343
:101DD0006F8F4FF0000080F311887047AFF30080E1
:101DE000044300204FF0500383F31188BFF36F8F3B
:101DF000BFF34F8F0A4A13680133012B13600DD1D3
:101E0000084B1B6813F0FF0F08D04FF0500383F30B
:101E10001188BFF36F8FBFF34F8FFEE7704700BF8E
:101E20000400002004ED00E0084A136843B94FF0B5
:101E3000500383F31188BFF36F8FBFF34F8FFEE71B
:101E4000013B13600BB983F3118870470400002035
:101E5000EFF30980BFF36F8F154B1A681EF0100F58
:101E600008BF20ED108A20E9F04F10602DE909002D
:101E70004FF0500080F31188BFF34F8FBFF36F8F87
:101E800001F0A2F84FF0000080F3118809BC196836
:101E90000868B0E8F04F1EF0100F08BFB0EC108AD1
:101EA00080F30988BFF36F8F704700BFAFF30080E6
:101EB0000443002008B54FF0500383F31188BFF3AB
:101EC0006F8FBFF34F8F00F057FF18B1034B4FF0E8
:101ED00080521A60002383F3118808BD04ED00E0EE
:101EE000084A0949002313600B60084B4FF47A71CC
:101EF0001B68B3FBF1F30649013B0B60072313603A
:101F0000704700BF10E000E018E000E0080000208B
:101F100014E000E0394B3A4A13B51968914208D1F0
:101F20004FF0500383F31188BFF36F8FBFF34F8FD0
:101F3000FEE71A68334B9A4208D14FF0500383F3FF
:101F40001188BFF36F8FBFF34F8FFEE72E4B1A78C8
:101F5000D2B20192FF221A701B782C4ADBB28DF8A4
:101F600003309DF8033003F050031370284B072211
:101F70001A6000219DF80300000602F1FF340DD421
:101F800001B11A601A68032A11D04FF0500383F38D
:101F90001188BFF36F8FBFF34F8FFEE79DF80320CB
:101FA0005200D2B28DF8032001212246E2E712024C
:101FB00002F4E0621A60019B134ADBB21370154B06
:101FC0001A6842F470021A601A6842F070421A608D
:101FD000FFF786FF104B00241C60FFF7CBFE0F4A73
:101FE000136843F040431360FFF7B0FE00F0ECFFCE
:101FF000FFF78CFE204602B010BD00BF00ED00E0F0
:1020000071C20F4170C20F4100E400E0E4060020FD
:10201000E806002020ED00E00400002034EF00E09E
:10202000EFF305830F2B0ED9104A9B5C104A1278F0
:102030009A4208D94FF0500383F31188BFF36F8F92
:10204000BFF34F8FFEE70B4B0B4A1B68126803F47C
:10205000E063934208D94FF0500383F31188BFF334
:102060006F8FBFF34F8FFEE7704700BFF0E300E0D4
:10207000E40600200CED00E0E806002010B50F4B50
:102080001A68824218D35C681919884201BF4168F6
:10209000184609195960446801198A4207D108494C
:1020A00009688A421FBF5168126809194160984245
:1020B000026018BF186010BD1346E1E7FC42002023
:1020C000EC0600202DE9F041044600F047FE3E49B1
:1020D0003E4D0B680BBB3E4A56071FBFD01D20F07C
:1020E000070002F570531B1A14BF02464FF47053D9
:1020F0001344083B23F00703364E0B60002070604A
:10210000326058601860981A1360334B5060186042
:10211000324B18604FF000432B602F68274216D1D6
:10212000002C41D004F1080358071CBF23F007031B
:10213000083363B1294A1668B342904607D8254A46
:1021400015686868834204D809688D4207D1002465
:102150002AE02C68002CF7D02A462546F1E72968AA
:1021600014681160C21A102A0FD9E818410708D064
:102170004FF0500383F31188BFF36F8FBFF34F8F7E
:10218000FEE742606B60FFF779FF13496B680868F0
:10219000F61A1F4386424FF00003C8F8006038BFAC
:1021A0000E6008346F602B6000F076FE630708D085
:1021B0004FF0500383F31188BFF36F8FBFF34F8F3E
:1021C000FEE72046BDE8F081EC060020F04200204A
:1021D000F0060020FC420020F8420020F4420020DB
:1021E00010B5044670B3184A50F8043C1268134204
:1021F00008D14FF0500383F31188BFF36F8FBFF303
:102200004F8FFEE750F8081C41B14FF0500383F3A5
:102210001188BFF36F8FBFF34F8FFEE723EA0203EE
:1022200040F8043C00F09AFD084A54F8043C116858
:10223000A4F108000B441360FFF720FFBDE8104035
:1022400000F02ABE10BD00BFF0420020F442002082
:1022500010B50446FFF7C6FDA46BFFF7E5FDB4FA21
:1022600084F0400910BD70B51546026C866B0446BB
:1022700042B905689DB9406800F0C4FF6560013649
:10228000A66370BD6DB9806801F026FDA368226C5D
:1022900013446268A360934201D32368A3600020C3
:1022A000EDE7C06801F018FD236CE26821685B422D
:1022B0001A448A42E2603EBF62689B18E360022DC6
:1022C000EDD10EB1013EEAE73046D8E7034610B43F
:1022D0001A6C084662B1D9685C681144A142D960A1
:1022E00024BF1968D960D9685DF8044B01F0F4BCCB
:1022F0005DF8044B704770B50446FFF773FD94F822
:10230000455004F124066DB2002D14DCFF2384F83F
:102310004530FFF789FDFFF765FD94F8445004F15F
:1023200010066DB2002D12DCFF2384F84430BDE8A6
:102330007040FFF779BD636A002BE7D0304600F0AC
:10234000C3FE08B100F048FF013D6DB2DCE7236930
:10235000002BE9D0304600F0B7FE08B100F03CFF9A
:10236000013D6DB2DEE7000038B50D46044640B9C8
:102370004FF0500383F31188BFF36F8FBFF34F8F7C
:10238000FEE7FFF72FFD206CE36B2268A26043435A
:10239000D1181B1A13446160E3600021FF23A1637D
:1023A00084F8443084F8453095B9236963B104F169
:1023B000100000F089FE38B10A4B4FF080521A60CD
:1023C000BFF34F8FBFF36F8FFFF72EFD012038BD96
:1023D00004F11000FFF758FC04F12400FFF754FC4F
:1023E000F2E700BF04ED00E013B51C4640B94FF022
:1023F000500383F31188BFF36F8FBFF34F8FFEE756
:1024000043B94FF0500383F31188BFF36F8FBFF3CD
:102410004F8FFEE74AB1D9B94FF0500383F31188CB
:10242000BFF36F8FBFF34F8FFEE789B14FF05003BB
:1024300083F31188BFF36F8FBFF34F8FFEE74FF029
:10244000500383F31188BFF36F8FBFF34F8FFEE705
:1024500050230193019B502BF1D10123002908BF88
:10246000224684F84630E063216422601946204603
:10247000FFF77AFF9DF8103084F84C30204602B008
:1024800010BDF8B50D461746064640B94FF050034B
:1024900083F31188BFF36F8FBFF34F8FFEE748437D
:1024A0005030FFF70FFE044660B1002380F846303D
:1024B00055B92060E663256401212046FFF754FFEB
:1024C00084F84C702046F8BD00F150030360F1E73A
:1024D0002DE9FF47894601921F46044640B94FF057
:1024E000500383F31188BFF36F8FBFF34F8FFEE765
:1024F000002940F08880036C002B00F084804FF0AE
:10250000500383F31188BFF36F8FBFF34F8FFEE744
:10251000019E002E00F082804FF0500383F311885B
:10252000BFF36F8FBFF34F8FFEE7019D1DB9FFF71C
:102530007BFC002058E016B902A800F005FEFFF76A
:1025400073FC00F00BFCFFF74DFC94F84430FF2BBC
:1025500008BF84F8448094F84530FF2B08BF84F806
:102560004580FFF761FC01A902A800F0F9FD0028F1
:1025700043D1FFF737FCA66BE56BFFF755FCAE4286
:1025800035D1019904F1100000F066FD2046FFF7F7
:10259000B2FE00F081FC38B94FF08053CAF8003029
:1025A000BFF34F8FBFF36F8F0126FFF71BFCA26BAA
:1025B000E36B9A4201D3022FB7D13A4649462046EF
:1025C000FFF751FE636A1BB104F1240000F07CFDAB
:1025D00038B1194B4FF080521A60BFF34F8FBFF3E1
:1025E0006F8FFFF721FC012004B0BDE8F087204683
:1025F000FFF781FE00F050FCD6E72046FFF77BFE98
:1026000000F04AFC95E7022F02D1E36B012B0AD1BF
:1026100000F0E8FD00283FF47BAF00264FF00008F3
:10262000DFF814A0C1E74FF0500383F31188BFF324
:102630006F8FBFF34F8FFEE704ED00E02DE9F84305
:10264000884691461F46044640B94FF0500383F335
:102650001188BFF36F8FBFF34F8FFEE709BB036C89
:10266000FBB14FF0500383F31188BFF36F8FBFF3BB
:102670004F8FFEE704F1240000F026FD002834D03F
:10268000B9F1000F31D00120C9F8000086F311889C
:10269000BDE8F88301356DB284F8455025E000208F
:1026A000F4E7022F02D1E36B012B20D1FFF7B8FC36
:1026B000EFF311864FF0500383F31188BFF36F8F50
:1026C000BFF34F8FA26BE36B9A4201D3022FE6D187
:1026D00094F845503A466DB241462046FFF7C3FD97
:1026E0006B1CD7D1636A002BC4D10120CEE74FF019
:1026F000500383F31188BFF36F8FBFF34F8FFEE753
:102700002DE9F04385B088460192044640B94FF068
:10271000500383F31188BFF36F8FBFF34F8FFEE732
:10272000002940F08680036C002B00F082804FF07F
:10273000500383F31188BFF36F8FBFF34F8FFEE712
:10274000019E002E7AD04FF0500383F31188BFF31F
:102750006F8FBFF34F8FFEE7019D1DB9FFF764FB3D
:10276000002052E016B902A800F0EEFCFFF75CFB77
:1027700000F0F4FAFFF736FB94F84430FF2B08BF63
:1027800084F8447094F84530FF2B08BF84F84570F6
:10279000FFF74AFB01A902A800F0E2FC00283DD1A6
:1027A0002046FFF755FD98B3019904F1240000F08D
:1027B00053FC2046FFF79FFD00F06EFB38B94FF049
:1027C0008053C9F80030BFF34F8FBFF36F8F0126DE
:1027D000FFF708FBA56B002DBED041462046013D0A
:1027E000FFF774FDA563236963B104F1100000F0E5
:1027F0006BFC38B1134B4FF080521A60BFF34F8F10
:10280000BFF36F8FFFF710FB012005B0BDE8F08329
:102810002046FFF770FD00F03FFBD8E72046FFF7AA
:102820006AFD00F039FB2046FFF712FD0028CED0EC
:1028300096E700F0D7FC002882D000260027DFF8BA
:102840000490C5E704ED00E02DE9F8438946904681
:10285000054640B94FF0500383F31188BFF36F8FE3
:10286000BFF34F8FFEE771BB036C63B34FF05003B0
:1028700083F31188BFF36F8FBFF34F8FFEE795F897
:102880004460494676B22846FFF720FD013C731CA0
:10289000AC6313D12B690BB901200BE005F11000DB
:1028A00000F012FC0028F7D0B8F1000FF4D001209E
:1028B000C8F8000087F31188BDE8F883013676B2C6
:1028C00085F84460E8E7FFF7ABFBEFF311874FF0C3
:1028D000500383F31188BFF36F8FBFF34F8FAC6B3F
:1028E000002CCCD12046E5E730B5074A002352F84A
:1028F000335002EBC3041DB942F83310606030BDA1
:102900000133082BF3D130BD3049002070B50446A7
:102910000D461646FFF766FA94F84430FF2B04BFC5
:10292000002384F8443094F84530FF2B04BF002383
:1029300084F84530FFF778FAA36B2BB93246294665
:1029400004F1240000F0A2FB2046BDE87040FFF730
:10295000D2BC00002DE9F0410446FFF743FA2E4BAC
:102960002E4D1A682E4F01321A602E68002E47D164
:102970002C601B68012B1DD1B8191436FFF784F9A0
:10298000B6F58C6FF8D1DFF8C480264E4046FFF7CD
:102990007BF93046FFF778F92348FFF775F92348AC
:1029A000FFF772F92248FFF76FF9224BC3F8008056
:1029B000214B1E60214A136801331360204A63646F
:1029C0001168E36A14208B4200FB037004F10401D8
:1029D00088BF1360FFF766F9FFF726FA194B1B68EB
:1029E00063B12B68DA6AE36A9A4207D2164B4FF05A
:1029F00080521A60BFF34F8FBFF36F8FBDE8F08135
:102A0000104B1B68002BD5D12B68DA6AE36A9A4217
:102A100098BF2C60CEE700BF704700200443002021
:102A2000104300209C470020B8470020E4470020C6
:102A3000D0470020084300200C430020804700209E
:102A400084470020CC47002004ED00E088470020A8
:102A5000064A13681968064B19B94FF0FF321A601D
:102A600070471268D268D2685268F8E708430020BD
:102A7000B04700202DE9F0470A9C099F96000D46BB
:102A800032468046A521206B994601F030F9236B30
:102A9000043E1E4426F007066B1E04F134020F3577
:102AA000597802F8011B13F8011F09B1AB42F7D1A5
:102AB000089D372D28BF37254FF0000AE562E564F1
:102AC000201D84F843A0C4F850A0FFF7E8F8C5F132
:102AD000380504F11800FFF7E2F8C4F854A02461A7
:102AE000A561646284F858A04A4641463046FFF723
:102AF0004BF9206007B13C60BDE8F08710B590F855
:102B0000593004463BB9006BFFF76AFB2046BDE82D
:102B10001040FFF765BB012BF9D0022B08D04FF016
:102B2000500383F31188BFF36F8FBFF34F8FFEE71E
:102B300010BD000080B5DFF85C80124F124C134DC1
:102B4000236863B9124B1B68012BF8D94FF08053EF
:102B5000C8F80030BFF34F8FBFF36F8FEEE7FFF77A
:102B600041F9FB68DE68301DFFF7BFF82B68013BB9
:102B70002B602368013B2360FFF756F93046FFF7CF
:102B8000BDFFDDE7E44700207447002070470020C8
:102B90001043002004ED00E0F8B5164B164D1E68FA
:102BA0000446286804300F46FFF79FF8631C2B4645
:102BB00007D137B1296811480431BDE8F840FFF763
:102BC00071B834441A68A642546007D90C4A106898
:102BD0001968BDE8F8400431FFF770B8094A106879
:102BE00019680431FFF76AF8074B1A68944238BF36
:102BF0001C60F8BDF847002004430020D0470020A7
:102C00000C43002008430020B047002070B586B078
:102C10000B9D0C9C45B94FF0500383F31188BFF313
:102C20006F8FBFF34F8FFEE744B94FF0500383F32C
:102C30001188BFF36F8FBFF34F8FFEE75C260496BA
:102C4000049E5C2E08D04FF0500383F31188BFF32D
:102C50006F8FBFF34F8FFEE72563022584F859502D
:102C600005AD01950A9D02940095FFF703FF2046EC
:102C7000FFF770FE059806B070BD2DE9F0430746DA
:102C800085B09000884616469946FFF71BFA054620
:102C9000E8B15C20FFF716FA0446A8B1002380F8DB
:102CA00059300D9B056301930C9B029000933246B3
:102CB0004B4641463846FFF7DDFE2046FFF74AFE09
:102CC000012005B0BDE8F0832846FFF789FA4FF0F0
:102CD000FF30F6E710B588B0002407AA06A905A8BA
:102CE00005940694FEF7B8FF059B0293069B01939B
:102CF00000942346079A14491448FFF787FFA0B9A8
:102D000008B010BD4FF0500383F31188BFF36F8FED
:102D1000BFF34F8F0E4B4FF0FF321A600D4B186010
:102D20000D4B1C60FFF7F6F8EAE700F0FFFA012808
:102D3000E8D00130E4D14FF0500383F31188BFF3A2
:102D40006F8FBFF34F8FFEE7203D0008352B000843
:102D5000B0470020CC470020F8470020024A136803
:102D600001331360704700BF7C470020014B186897
:102D7000704700BFF84700202DE9F84F3B4B1B6818
:102D8000002B51D13A4B1C6801341C60BCB9394B43
:102D90001A68126842B14FF0500383F31188BFF3F1
:102DA0006F8FBFF34F8FFEE7334A196810681860C2
:102DB0001160324A136801331360FFF749FE304D4A
:102DC000304F2B689C424FF0000B3CD3DFF8A480BF
:102DD000DFF8C090D8F80020126862BB4FF0FF32D5
:102DE0002A6030E006F1040A5046FEF77EFFB16A21
:102DF00019B106F11800FEF778FFF06AD9F8001053
:102E0000214B88424FF0140288BFC9F80000514698
:102E100002FB0030FEF746FF3868F16AC26A914251
:102E200028BF4FF0010BD5E7184A13680133136030
:102E30004FF0000B11E0D8F80020D268D668716816
:102E40008C42CFD229603A680F4BD16A14224A4390
:102E50009A58022A28BF4FF0010B0D4A1268002A27
:102E600018BF4FF0010B5846BDE8F88F7C47002093
:102E7000F8470020084300200C430020B4470020FE
:102E8000B047002004430020104300207847002072
:102E9000FC470020844700202DE9F0412F4C236897
:102EA00043B94FF0500383F31188BFF36F8FBFF323
:102EB0004F8FFEE7FEF796FF2368013B23602468EF
:102EC0002CB10024FEF7B0FF2046BDE8F081244B72
:102ED0001B68002BF5D0234E234FDFF8A08033680A
:102EE000E3B90CB1FFF7B4FD204D2C6844B1204E7E
:102EF0000127FFF741FF00B13760013CF9D12C6099
:102F00001B4B1B68002BDCD01A4B4FF080521A6011
:102F1000BFF34F8FBFF36F8F0124D3E7F368DC68F3
:102F2000251D04F11800FEF7E0FE2846FEF7DDFE41
:102F3000E36A3A681420934200FB0380294688BF65
:102F40003B60FEF7AFFE0C4BE26A1B68DB6A9A42FD
:102F500022BF074B01221A60C1E700BF7C47002057
:102F600070470020B84700208447002078470020A1
:102F7000FC47002004ED00E0044300201043002043
:102F800008B540B90E4B4FF080521A60BFF34F8F17
:102F9000BFF36F8F08BD0B4B196841B14FF0500361
:102FA00083F31188BFF36F8FBFF34F8FFEE7FFF7F7
:102FB000D5FEFFF7F1FDFFF76FFF0028E2D008BD57
:102FC00004ED00E07C470020F8B51E4B1A681E4B4C
:102FD00012B101221A60F8BD1C4C1A6022682368E5
:102FE00012681B6B9A4204D820682168343100F0C3
:102FF000B7FB174E174A33684FF0140E17460EFBF7
:1030000003F15018555885B1456808316D68456021
:103010000A44954204BF6A684260142202FB0372AC
:103020005268D26822603360F8BD43B94FF0500354
:1030300083F31188BFF36F8FBFF34F8FFEE7013B20
:10304000DDE700BF7C470020FC4700200443002050
:10305000844700201043002010B50C4640B94FF0C3
:10306000500383F31188BFF36F8FBFF34F8FFEE7D9
:10307000054B19681831FEF721FE20460121BDE8F5
:103080001040FFF789BD00BF0443002038B50D464E
:10309000144640B94FF0500383F31188BFF36F8F8C
:1030A000BFF34F8FFEE7074B19681831FEF7FAFDA3
:1030B000002C21460CBF28464FF0FF30BDE83840B9
:1030C000FFF76ABD0443002038B5C368DC6844B923
:1030D0004FF0500383F31188BFF36F8FBFF34F8F0F
:1030E000FEE704F118052846FEF7FFFD104B1B68AC
:1030F000DBB9251D2846FEF7F8FD0E4AE36A116884
:103100008B4288BF13600C4A1420294600FB032021
:10311000FEF7C8FD094BE26A1B68DB6A9A4283BF6F
:10312000074B01201860002038BD29460548EFE70D
:103130007C470020844700201043002004430020E7
:10314000FC470020B8470020034B1B680360034B7B
:103150001B684360704700BFB4470020F847002059
:1031600070B50C46054640B94FF0500383F3118803
:10317000BFF36F8FBFF34F8FFEE741B94FF050039E
:1031800083F31188BFF36F8FBFF34F8FFEE7FEF716
:1031900029FE0F4B69681A682368581C0ED00D4829
:1031A0002E680068864201D08A420ED2521A9A4294
:1031B00009D29B1A23602846FFF7C6FF0024FEF7BA
:1031C00033FE204670BD002323600124F7E700BFD3
:1031D000F8470020B4470020014B01221A607047D5
:1031E000FC470020054B1B6833B1054B1B68002BC7
:1031F0000CBF02200020704701207047CC47002000
:103200007C47002038B5044608B9002038BD1B4B68
:103210001B68984208D04FF0500383F31188BFF326
:103220006F8FBFF34F8FFEE7036D43B94FF050032D
:1032300083F31188BFF36F8FBFF34F8FFEE7C16A2F
:10324000C26C013B91420365DFD0002BDDD1051D2F
:103250002846FEF74AFDE36CE362C3F13802A2613F
:10326000074A11688B4288BF1360064A142000FB8E
:1032700003202946FEF716FD012038BD0443002037
:103280008447002010430020F7B5114CFEF7AAFD3B
:103290002568BDB90F4F104E3846FEF7F5FC304695
:1032A000FEF7F2FC0D4B0E4A1F600E4B10211E6004
:1032B0000A2000950C4BFFF797F8206010B10B49DE
:1032C000FFF712FB03B0BDE8F040FEF7ADBD00BF55
:1032D00024490020A8480020BC48002000480020C5
:1032E0000848002004480020D4480020253D00085C
:1032F000914208B5416000610AD8D21A83699A42A6
:103300000DD2084B011D1868FEF7D8FC002008BD3F
:103310009A4201D2994202D2011D034BF3E70120E8
:1033200008BD00BF044800200048002010B588B048
:10333000FFF7AAFF134B1B6843B94FF0500383F309
:103340001188BFF36F8FBFF34F8FFEE7002407AAEA
:1033500006A905A805940694FEF78AFC059B02932E
:10336000069B019302230093079A074907482346C7
:10337000FFF74CFC064B18600028DED0012008B097
:1033800010BD00BF244900202A3D00086934000810
:103390002849002030B5154685B01A46034640B985
:1033A0004FF0500383F31188BFF36F8FBFF34F8F3C
:1033B000FEE70D4C206880B105298DE822000293BC
:1033C0000DDCFFF70FFF0023022808BF089A2068D2
:1033D00018BF1A466946FFF77BF805B030BD0023D9
:1033E0006946FFF72BF9F8E7244900202DE9F3415E
:1033F0001B4D4FF000082B681A6832B9194A116842
:103400002960136002B0BDE8F081DB68DC681E68EB
:10341000271D3846FEF769FC636A20469847E36932
:10342000012BE8D1A36933449E4206D26360246134
:1034300039462868FEF742FCDDE70023CDF800801E
:10344000324619462046FFF7A5FF0028D3D14FF09A
:10345000500383F31188BFF36F8FBFF34F8FFEE7E5
:1034600000480020044800202DE9F04F724DDFF89D
:10347000D88189B02F462B68D3F800B0BBF1000F7C
:1034800044D0DB68D3F80090FFF768FCFFF76EFCD0
:103490006A4B1A68904282461E4639D20393FFF760
:1034A000A5FF039B0124C3F800A0002C40F08A80F4
:1034B000BBF1000F6BD0D14500F28280FFF7ECFC2E
:1034C0003B68DB68D3F80CB00BF10400FEF70DFC91
:1034D000DBF81C30012B1DD1DBF818104B4652468F
:1034E00049445846FFF704FFA0B1009423464A46DA
:1034F00021465846FFF74EFF60B94FF0500383F363
:103500001188BFF36F8FBFF34F8FFEE7D946BBE73C
:103510000024C8E7DBF8243058469847DFF82491A8
:10352000D9F80000002204A9FFF7EAF80028A2D089
:10353000049B002B03DA07990698059B9847049B88
:10354000002BEDDB069C636913B1201DFEF7CDFB5C
:10355000FFF70CFC33689842834601D2FFF746FF21
:10356000049AC6F800B0092ADAD80123934013F46C
:10357000047A4ED113F0C70F27D19B06D0D594F80B
:103580002C30002BCCD12046FEF72AFEC8E72C4B6E
:103590001B681A68B2FA82F252092A4BA9EB0A0197
:1035A0001868FFF7B3F9FFF777FC0028B6D14FF0A2
:1035B0008053C8F80030BFF34F8FBFF36F8FADE774
:1035C0002246EAE7FFF768FCA8E7A169059B5A468F
:1035D00019442046FFF78CFE0028A1D0636A2046DC
:1035E0009847E369012B9BD1A2690599CDF800A00A
:1035F0000A44534651462046FFF7CCFE00288FD19F
:103600004FF0500383F31188BFF36F8FBFF34F8FD9
:10361000FEE70599A16141B94FF0500383F311888A
:10362000BFF36F8FBFF34F8FFEE75B465A46594497
:103630002046FFF75DFE73E700480020D0480020D9
:10364000044800202449002004ED00E010B5144C8B
:10365000012210212046FDF75DFA4FF47A70FCF745
:1036600073FF002210212046FDF754FA04F5006490
:103670004FF47A70FCF768FF012208212046FDF71D
:1036800049FA4FF47A70FCF75FFF204600220821C8
:10369000FDF740FA41F28830BDE81040FCF754BF16
:1036A0000000024010B500234FF060428B4200DB67
:1036B00010BDD2F8804EE40703D5D2F8004EE407DF
:1036C00002D40133F2E700BF1468002CFBD0C45CC5
:1036D0001470F6E708B501220A490B480B4C0A4D55
:1036E000FDF7BCFF20460421FFF7DCFF6423042222
:1036F00021462846FDF754FF4FF47A70FEF7C4F9CF
:10370000F0E700BFD8490020404A0020323D0008C1
:1037100070B5002492B04022214602A88DF80740DF
:1037200000F0E5FA0D4E306800231A460DF107014E
:10373000FEF750FA05460028F5D19DF807300A2B10
:1037400006D012A9621C0C4404F8403CD4B2EAE74B
:10375000214602A8FFF7A6FF2C46E4E7D449002043
:1037600010B509480C460F21FFF79CFF2046FCF7D7
:103770002FFD01462046FFF795FF02210348BDE8D3
:103780001040FFF78FBF00BF4A3D0008343D0008DE
:1037900030B595B03022002108A800F0A8FA002129
:1037A000142203A800F0A3FA00251B4B01951A6C04
:1037B00042F080521A641B6C03F080530193019B0A
:1037C000164B02951A6842F480421A601B680F95E6
:1037D00003F480430293029B01230B9310230C9369
:1037E0000823109350230224119308A80423139351
:1037F00008940E941294FDF793F90F230393214636
:103800004FF4805303A80494059506930795FDF79C
:1038100037FB15B030BD00BF0038024000700040DB
:1038200080B598B000245D4DFCF762FEFFF7B0FF55
:10383000142200210FA800F05AFA02942B6B58486A
:1038400043F080032B632B6B03F080030293029BF6
:1038500003942B6B43F004032B632B6B03F00403E3
:103860000393039B04942B6B43F001032B632B6B9B
:1038700003F001030493049B05942B6B43F00203B4
:103880002B632B6B03F00203059322460821059B53
:10389000FDF740F9224610214248FDF73BF9224648
:1038A0004FF4E0414048FDF735F9012608230FA900
:1038B0003B480F931027109611941294FDF74AF885
:1038C0000FA9384810960F9711941294FDF742F8FB
:1038D0004FF4E0430FA934480F93109611941294BB
:1038E000FDF738F801942B6B43F400132B632B6B1B
:1038F00003F400132246052101933846019BFCF78F
:1039000049FE3846FCF77AFE052122461120FCF7D5
:1039100041FE1120FCF772FE2448254A84604FF4D2
:10392000E13380E80C000C234361C46004618461CE
:10393000C461FDF707FEFFF789FEFEF709F831467F
:1039400022464FF48070FEF7B9F81A4B182518601C
:103950002422214606A800F0CAF98026164B1748F3
:1039600006930DEB050221460B960C95FEF72CF8FD
:10397000134B2422186021460FA800F0B8F9114B10
:1039800011480F930FAA214614961595FEF71CF8BF
:103990000E4B1860FDF7F8FFFEE700BF003802404D
:1039A000000802400000024000040240404A00209B
:1039B00000440040D4490020373D0008113700087A
:1039C00070490020433D0008D5360008DC4900203E
:1039D00003480449006800231A46FEF7B7B800BF41
:1039E000D4490020D84900200268034B9A4201D1F3
:1039F000FCF798BD704700BF000001407047000011
:103A000007B50F4B00220092596C41F48041596474
:103A1000596C01F48041009100990192196C41F0B8
:103A2000805119641B6C03F0805301930F216FF0D8
:103A30000100019BFCF7AEFD03B05DF804FB00BF85
:103A40000038024070B5064688B01422002103A851
:103A500000F04DF93268334B9A4260D1002503F5EE
:103A6000FA3301951A6C3048304C42F400321A6433
:103A70001A6C02F400320192019A02951A6B42F01C
:103A800001021A631B6B03F001030293029B0C23D8
:103A9000039302230493012305930323069303A9AD
:103AA00007230793FCF756FF214BA5604FF0006CEE
:103AB00084E808104FF48063236120464FF480733C
:103AC000E5606561A561E36125626562FCF7BAFDA9
:103AD00008B1FFF793FF7463164BA663164C4FF0C3
:103AE00000654FF0400E84E828404FF480620023C8
:103AF0002046E36022616361A361E3612362636244
:103B0000FCF7A0FD08B1FFF779FF346326200022FF
:103B10000521A663FCF73EFD2620FCF76FFD08B0EB
:103B200070BD00BF00440040000002407449002006
:103B300088600240A0600240E049002030B50146A4
:103B400089B000221920FCF725FD1920FCF756FD4D
:103B50000025144B02955A6C134C42F001025A6432
:103B60005B6C03F00103029301A903A8029BFDF71C
:103B700041FAFDF72FFA0D4B236040F2E733E36083
:103B80000B4BB0FBF3F00138606020462561A56067
:103B9000FDF76CFB20B92046FDF74BFA09B030BDAC
:103BA0000120FBE700380240804A0020000001406D
:103BB00040420F007047FEE7FEE7FEE7FEE7704772
:103BC0000148FCF70DBE00BF744900200148FCF716
:103BD00007BE00BFE04900200148FDF73EBA00BF24
:103BE000804A00200148FDF70BBE00BF404A00207C
:103BF0000F49D1F8883043F47003C1F888300D4B79
:103C00001A68002042F001021A6098601A6822F0D7
:103C1000847222F480321A60074A5A601A6822F4C9
:103C200080221A60D8604FF000638B60704700BF3D
:103C300000ED00E00038024010300024DFF834D0FE
:103C4000002103E00C4B5B58435004310B480C4BF4
:103C500042189A42F6D30B4A02E0002342F8043B92
:103C6000094B9A42F9D3FFF7C3FF00F011F8FFF7B1
:103C7000D7FD704700000220843D000800000020AE
:103C80000C0000200C000020C04A0020FEE70000CD
:103C900070B50D4E0D4CA41BA4100025A54209D1F2
:103CA0000B4E0C4C00F02CF8A41BA4100025A542D0
:103CB00005D170BD56F8253098470135EEE756F826
:103CC000253098470135F2E77C3D00087C3D00082F
:103CD0007C3D0008803D000810B5431E0A44914217
:103CE00000D110BD11F8014B03F8014FF7E7024472
:103CF0000346934200D1704703F8011BF9E7000027
:103D0000F8B500BFF8BC08BC9E467047F8B500BFC8
:083D1000F8BC08BC9E46704798
:103D1800000610160006101649444C4500546D72F2
:103D28005100546D72205376630041540D0A0064AB
:103D3800656661756C745461736B004D7954617379
:103D48006B005461736B204F766572666C6F773ABF
:103D58002000000000000000000001020304060724
:0C3D680008090000000001020304000034
:083D74009CC4FF7F0100000068
:043D7C00B501000885
:043D800091010008A5
:0C3D840001000000AAAAAAAA0024F40072
:0400000508003C3D76
:00000001FF
